:100000000C9444010C94551A0C942E1A0C94071A53
:100010000C94E0190C946C010C946C010C94B919BB
:100020000C946C010C947C1A0C94C4160C942D172F
:100030000C946C010C946C010C946C010C946C018C
:100040000C946C010C946C010C946C010C946C017C
:100050000C946C010C946C010C946C010C946F1951
:100060000C946C010C946C010C946C010C946C015C
:100070000C946C010C946C010C946C010C946C014C
:100080000C946C010C946C010C946C010C946C013C
:100090000C946C010C946C010C946C010C946C012C
:1000A0000C946C010C946C010C946C014E414E4903
:1000B0004E495459494E46CDCCCC3D0AD7233C1726
:1000C000B7D13877CC2B329595E6241FB14F0A0073
:1000D0000020410000C84200401C4620BCBE4CCA63
:1000E0001B0E5AAEC59D74222C22726573223A747F
:1000F0007275657D007B226B6579223A2200222C85
:1001000022726573223A66616C73652C2265727285
:10011000223A22007B226B6579223A2200227D005E
:100120002E002E007B226E616D65223A2253656E91
:10013000736F7253746174696F6E526164696F2278
:100140002C226669726D77617265223A22002C2238
:1001500062617474657279223A002C2268646F704F
:10016000223A002C226C6F6E223A00226C617422BB
:100170003A0000000000240027002A002D00300073
:1001800000000000250028002B002E003100040490
:100190000404040304050202020204030202020230
:1001A0000606060606060404020202040404080207
:1001B00001104080401020408040800802040180EF
:1001C000402010020110801020404020000000025A
:1001D00000090F0000030401000C000000000000F3
:1001E0000000000000000000000000080B000202F8
:1001F00002000009040000010202000005240010B2
:10020000010524010101042402060524060001075A
:1002100005810310004009040100020A00000007E4
:1002200005020240000007058302400000040309A4
:100230000412010002EF0201409A230C8000010128
:1002400002030141646166727569740046656174F8
:100250006865722033327534007B226572726F726A
:10026000223A22526164696F20496E6974204661A6
:10027000696C6564227D00000000002300260029CF
:10028000002C002F0000E71A11241FBECFEFDAE088
:10029000DEBFCDBF28E0A4ECB6E001C01D92A936B8
:1002A000B207E1F716E0A0E0B1E0ECE8FEE402C03E
:1002B00005900D92A43CB107D9F711E0C4E4D1E058
:1002C00004C02197FE010E940023C334D107C9F75F
:1002D0000E94331B0C9444270C9400008F929F9231
:1002E000AF92BF92CF92DF92EF92FF920F931F9344
:1002F000CF93DF93C82F8091130890911408DC01ED
:10030000ED91FC910688F789E02D61E00995482F71
:10031000437E80911308909114084C2BDC01ED91E1
:10032000FC91028CF38DE02D61E00995809113081A
:1003300090911408DC01ED91FC910680F781E02D8D
:1003400009954901D42FC52F809113089091140865
:10035000DC01ED91FC910688F789E02D67E20995B3
:1003600087FD2CC08091130890911408DC01ED9159
:10037000FC910680F781E02D09955401CD2EDC2EED
:10038000E12CF12C00E010E00E940D23283E3340C8
:10039000410551056105710581059105A9F2A0F29C
:1003A00080E0DF91CF911F910F91FF90EF90DF9050
:1003B000CF90BF90AF909F908F90089581E0F1CF44
:1003C000109216081092150884E00C946E0180912A
:1003D000150890911608892B11F00E94E001809178
:1003E000130890911408DC01ED91FC91028CF38DBF
:1003F000E02D42E465E2099581E090E090931608D3
:100400008093150880E10C946E01E82FF0E0EE0F68
:10041000FF1FEE5BFE4F718360838230C9F028F4CA
:10042000882341F0813069F008958330C1F0843031
:10043000E9F0089580916900836080936900E89AEB
:100440000895809169008C6080936900E99A08950D
:1004500080916900806380936900EA9A0895809191
:100460006900806C80936900EB9A089580916A001E
:10047000806380936A00EE9A0895CF92DF92EF92A4
:10048000FF92CF93DF930E943F2020E034E244E7C5
:1004900052E40E941F220E9491226B017C01C3E161
:1004A000D8E088819981A70166277727DC01ED9143
:1004B000FC91028CF38DE02D67E00995888199818C
:1004C00077276F2D5E2D4D2DDC01ED91FC91028C77
:1004D000F38DE02D68E0099588819981DC01ED912B
:1004E000FC91028CF38DE02D4C2D69E0DF91CF91D2
:1004F000FF90EF90DF90CF9009949091B407911105
:1005000003C08FEF9FEF08954FB7F89492E0909358
:10051000E9009091F200292F30E01216130614F42E
:1005200021E030E0232B29F084E68093B30780910B
:10053000F100992339F02091F200211103C02BE63C
:100540002093E8004FBF9923E1F290E008952FB780
:10055000F89483E08093E9009091E800892F8072FD
:1005600095FF04C09091F20080E4891B2FBF08958D
:100570008091AB0781110DC082E08093A70784E0D2
:100580008093A8071092AA071092A90781E0809390
:10059000AB0787EA97E008954091330750913407FD
:1005A000209131073091320742175307B4F49091EC
:1005B000E8009570E1F39091E80092FD19C08093F6
:1005C000F100809133079091340701968F7399273A
:1005D000892B19F48EEF8093E80080913307909176
:1005E00034070196909334078093330781E0089590
:1005F00080E00895EF92FF920F931F93CF93DF93C4
:10060000F82E192FE62E042F81E0860F880F0E9406
:10061000CC0283E00E94CC02CF2DD12FEC0EFD2E18
:10062000F11CCE15DF05B9F007FF13C0FE01849160
:100630000E94CC02182F80E00E94CC0281232196D8
:100640008111EFCFDF91CF911F910F91FF90EF902C
:1006500008958881EDCF81E0F5CFDF92EF92FF9290
:100660000F931F93CF93DF93D82E8A01EB017B0169
:10067000E40EF51ECE15DF0559F0D7FE12C0FE01BF
:1006800084910E94CC0221968111F4CF0FEF1FEFCD
:10069000C801DF91CF911F910F91FF90EF90DF90F4
:1006A00008958881EECF0F931F93CF93DF931F920E
:1006B000CDB7DEB782E0898342E450E06BEE71E0B3
:1006C00080E80E942D030E94B802DC0112960D9171
:1006D0001C910115110589F0D801ED91FC91028062
:1006E000F381E02DBE016F5F7F4FC801099597FD33
:1006F00004C0F80100851185ECCF89810F90DF914E
:10070000CF911F910F910895CF93DF931F92CDB793
:10071000DEB76983DC01ED91FC910280F381E02D6D
:1007200041E050E0BE016F5F7F4F09950F90DF9170
:10073000CF9108950F931F93CF93DF938C01D0E057
:10074000C0E0F801EC0FFD1F6491662341F085EBDA
:1007500097E00E948403892B11F02196F2CFCE01FD
:10076000DF91CF911F910F91089583E08093E9006D
:100770008091F200882319F08AE38093E8000895BD
:100780000E94A70290E00895FC018485958597FD5D
:1007900005C02FEF3FEF3587248708950C947D0225
:1007A000CF93DF93EC018C859D8597FF04C00E9459
:1007B0007D029D878C878C859D85DF91CF910895E3
:1007C000FC018485958597FD0BC09FB7F89482E066
:1007D0008093E9008091F2009FBF90E00196089518
:1007E0009FB7F89482E08093E9008091F2009FBF68
:1007F00090E00895282F30E0F901E453FE4F9491E2
:10080000F901E355FE4F849122573E4FF90124919F
:10081000222309F430C09923E9F091509F30D0F49D
:10082000E92FF0E0EA5EFB4F0C94002344044804F7
:1008300025043C0440042A042A042A044B045104DD
:10084000550459045F042A046304909180009F7743
:1008500090938000E22FF0E0EE0FFF1FE058FE4F74
:10086000A591B4919FB7F894EC91611132C0809535
:100870008E238C939FBF0895909180009F7DE8CF39
:1008800090918000977FE4CF94B59F7794BDE2CF9D
:1008900094B59F7DFBCF909190009F7790939000AF
:1008A000D9CF909190009F7DF9CF90919000977F44
:1008B000F5CF9091C0009F779093C000CBCF9091DF
:1008C000C0009F7DF9CF9091C200977F9093C200A6
:1008D000C1CF8E2BCECFCF93DF9390E0FC01E355B9
:1008E000FE4F249182579E4FFC0184918823D1F0C2
:1008F00090E0880F991FFC01EE58FE4FA591B4912E
:10090000FC01E058FE4FC591D49161110EC09FB714
:10091000F8948C91E22FE0958E238C932881E2232A
:10092000E8839FBFDF91CF9108958FB7F894EC9142
:10093000E22BEC938FBFF6CF3FB7F89480912D0751
:1009400090912E07A0912F07B091300726B5A89B54
:1009500005C02F3F19F00196A11DB11D3FBFBA2F51
:10096000A92F982F8827BC01CD01620F711D811D11
:10097000911D43E0660F771F881F991F4A95D1F795
:1009800008958F929F92AF92BF92CF92DF92EF9293
:10099000FF926B017C010E949C044B015C01C1141D
:1009A000D104E104F104B9F00E949C0468197909AA
:1009B0008A099B09683E73408105910580F321E017
:1009C000C21AD108E108F10888EE880E83E0981E6B
:1009D000A11CB11CE4CFFF90EF90DF90CF90BF90AF
:1009E000AF909F908F9008958F929F92AF92BF92F9
:1009F000CF92DF92EF92FF920F931F93CF93DF93EB
:100A00006C017B018A0180910B01882309F45BC092
:100A10008091B407882309F456C08091370780FF7E
:100A200005C08091E00082608093E000E801B12C75
:100A30008AEFA82E93E0892E2AE3922E209711F4B4
:100A4000BB20D9F10E94A70281110AC0AA94AA2052
:100A5000D1F161E070E080E090E00E94C104EECF4F
:100A60008C171D0611F00CF08C2F9FB7F894809214
:100A7000E9002091E80025FD02C09FBFDFCF282FAD
:100A800030E0C21BD30BF701815020F0419140931D
:100A9000F100FACFE20EF31EBB2021F09092E800A5
:100AA000B12CEBCF8091E80085FDE7CF9092E80074
:100AB000BB24B394209709F3F3CF84E680933607E1
:100AC000101611063CF081E090E0F60193838283DA
:100AD00010E000E0C801DF91CF911F910F91FF90CE
:100AE000EF90DF90CF90BF90AF909F908F90089540
:100AF00008952FB7F8948230F9F048F4882301F173
:100B0000813059F082E080932B0780E007C083306A
:100B1000A9F08430B9F780E401C082E090912A07FF
:100B2000892B80932A0780912B07811103C081E0D4
:100B300080932B072FBF089584E0F0CF88E0EECF9D
:100B400081E0ECCFDC01FB01460F571F4E175F071A
:100B5000C9F09191292F30E084E0359527958A9549
:100B6000E1F72A3058F0295C2C939F709A3040F0BE
:100B7000995C11969C9311971296E8CF205DF4CF63
:100B8000905DF7CF81E00895FB01BA01452B49F054
:100B9000A901440F551FE417F50718F0A9010C949B
:100BA000A20580E00895262F30E090E0A1E0B0E0BB
:100BB000821750F0FD01022E01C0EE0F0A94EAF7F1
:100BC0009E2B2F5F3F4FF4CF9423892F90E002C0DC
:100BD000959587956A95E2F70895FC018FEF9FEF51
:100BE0006150C8F02191322F3927232F22952F7081
:100BF0002327422F50E0382FCA01982F882792953B
:100C0000907F82279327A5E0440F551FAA95E1F70F
:100C100084279527E5CF089578940895F89408954A
:100C2000862F60E00C94FA03862F61E00C94FA039F
:100C3000862F61E00C946B04862F60E00C946B04AB
:100C4000CF93DF932FB7F89480919D0790919E07E3
:100C5000A0919F07B091A0072FBF9C01AD0160E05C
:100C600070E080E090E0DF91CF9108950F931F93A3
:100C7000B801C9011F910F910C94C1040F931F93E8
:100C8000CF93DF93DC011296ED91FC9162816F3F6F
:100C900009F451C0EC01E881F9810284F385E02D6B
:100CA0000995AA81BB81E881F9810684F785E02D49
:100CB00012966C91CE010995E881F9810480F58145
:100CC000E02D0AE010E020E030E040E050E060E09D
:100CD00070E0CE010995AA81BB81E881F981048485
:100CE000F585E02D12966C91CE010995E881F98188
:100CF0000480F581E02D20E030E040E050E060E04D
:100D000070E0CE010995AA81BB81E881F981068452
:100D1000F785E02D12966C91CE010995E881F98155
:100D20000480F581E02D20E030E040E050E060E01C
:100D300070E0CE010995DF91CF911F910F91089539
:100D40000F931F93CF93DF93EC011FB7F89480911B
:100D50002907811127C0EFE9F1E08491EEEBF1E082
:100D60009491E82FF0E0EE0FFF1FEE58FE4FA59193
:100D7000B491EC91E92321F461E081E10E94FA034E
:100D800061E081E10E946B048CB580618CBD8CB503
:100D900080648CBD61E08FE00E946B0461E080E1C3
:100DA0000E946B04809129078F5F809329071FBFE2
:100DB000EA81FB8161816F3F91F0E881F9810284D2
:100DC000F385E02DCE010995AA81BB81E881F981E7
:100DD0000484F585E02D11966C91CE010995EA8188
:100DE000FB8162816F3F39F0E881F9810084F185F0
:100DF000E02DCE01099510E000E0EA81FB81E00FD3
:100E0000F11F63816F3F39F0E881F9810084F1853A
:100E1000E02DCE0109950F5F1F4F0630110569F7D0
:100E2000EA81FB816081E881F9816F3FC9F0048428
:100E3000F585E02DCE010995E881F9810480F581E1
:100E4000E02D0AE010E020E030E040E050E060E01B
:100E500070E0CE010995DF91CF911F910F91089518
:100E60000280F381E02DCE01DF91CF911F910F9190
:100E70000994CF93DF93FC01DB0112962C93129718
:100E800011965C934E93C281D381888113969C9175
:100E90001397892B888312968C911297982F9D7F98
:100EA000913031F4958113962C911397922B958361
:100EB0008150823028F4868113969C91892B8683F9
:100EC000809168009481892B80936800DF91CF9195
:100ED000089580912B07882361F09FB7F8942091A3
:100EE0002B0780912507213019F48DBB9FBF0895F2
:100EF0008FBF08958EBD00000DB407FEFDCF8EB5E7
:100F0000089520912B07222381F03FB7F894209178
:100F10002B07213069F42DB3209325074DB3209181
:100F20002A07209524232DBB3FBF8CBD9DBD08956E
:100F300030932507FACFCF92DF92EF92FF920F9373
:100F40001F93CF93DF93EC01162F6A01F22EE881F5
:100F5000F9810288F389E02D0995AA81BB81E88196
:100F6000F9810684F785E02D11966C91CE010995E3
:100F700080910508909106080E948107812F806862
:100F80000E947A07E82E8601FA948FEFF81631F066
:100F9000F80181918F010E947A07F6CF0E946907BC
:100FA000AA81BB81E881F9810484F585E02D119641
:100FB0006C91CE010995E881F9810488F589E02DCD
:100FC000CE0109958E2DDF91CF911F910F91FF904A
:100FD000EF90DF90CF9008950F931F93CF93DF93FF
:100FE000EC01162F042FE881F9810288F389E02DA6
:100FF0000995AA81BB81E881F9810684F785E02DF6
:1010000011966C91CE010995809105089091060882
:101010000E948107812F80680E947A07182F802FF5
:101020000E947A070E946907AA81BB81E881F98141
:101030000484F585E02D11966C91CE010995E88127
:10104000F9810488F589E02DCE010995812FDF9182
:10105000CF911F910F910895CF92DF92EF92FF925F
:101060000F931F93CF93DF93EC01162F6A01F22E9B
:10107000E881F9810288F389E02D0995AA81BB8175
:10108000E881F9810684F785E02D11966C91CE01F7
:10109000099580910508909106080E948107812F8B
:1010A0008F770E947A07E82E8601FA948FEFF81660
:1010B00039F080E00E947A07F80181938F01F5CF23
:1010C0000E946907AA81BB81E881F9810484F585C2
:1010D000E02D11966C91CE010995E881F981048883
:1010E000F589E02DCE0109958E2DDF91CF911F91CD
:1010F0000F91FF90EF90DF90CF9008951F93CF93C3
:10110000DF93EC01162FE881F9810288F389E02D45
:101110000995AA81BB81E881F9810684F785E02DD4
:1011200011966C91CE010995809105089091060861
:101130000E948107812F8F770E947A0780E00E94AA
:101140007A07182F0E946907AA81BB81E881F9817B
:101150000484F585E02D11966C91CE010995E88106
:10116000F9810488F589E02DCE010995812FDF9161
:10117000CF911F91089580911B07811145C085EB88
:1011800097E09093C5068093C406E2EDF6E089E40B
:10119000DF011D928A95E9F780E090E8A9EDB3E4BC
:1011A0008093CE069093CF06A093D006B093D1063D
:1011B000E6EDF6E080E4DF011D928A95E9F781E033
:1011C0008093160740E050E069ED73E44093CA064F
:1011D0005093CB066093CC067093CD0640E050E070
:1011E00068EC71E44093C6065093C7066093C80646
:1011F0007093C9068093190724EC36E030932407D6
:101200002093230780931B0784EC96E00895982F82
:101210008FEB890F8A31B0F08FE9890F8A3118F48A
:1012200089EB890F089580ED890F8A3010F484E0EE
:10123000F8CF9B3221F09F3221F08FEF08958EE39B
:1012400008958FE30895CF92DF92EF92FF921F935C
:10125000CF93DF9300D0CDB7DEB70E94BB08DC018F
:101260001696CD90DD90ED90FC9019978091130823
:1012700090911408DC01ED91FC910190F081E02D3A
:1012800009958091130890911408DC01ED91FC916F
:101290000688F789E02D60E109958F3F09F4F5C0D4
:1012A0000E94E0018091130890911408DC01ED91F7
:1012B000FC91028CF38DE02D40E36FE6099580915F
:1012C000130890911408DC01ED91FC91028CF38DD0
:1012D000E02D40E062E00995809113089091140898
:1012E000DC01ED91FC91028CF38DE02D45E063E093
:1012F00009958091130890911408DC01ED91FC91FF
:10130000028CF38DE02D40E064E009958091130894
:1013100090911408DC01ED91FC91028CF38DE02D8D
:1013200041E065E009958091130890911408DC0173
:10133000ED91FC91028CF38DE02D49E966E0099571
:101340008091130890911408DC01ED91FC91028CBE
:10135000F38DE02D4BEE69E1099580911308909192
:101360001408DC01ED91FC91028CF38DE02D4BEE25
:101370006AE109958091130890911408DC01ED91C0
:10138000FC91028CF38DE02D40E067E3099580E449
:1013900080931C088091130890911408DC01ED9152
:1013A000FC91028CF38DE02D40E468E30995809177
:1013B000130890911408DC01ED91FC91028CF38DDF
:1013C000E02D40E06CE2099580911308909114089B
:1013D000DC01ED91FC91028CF38DE02D42E06DE299
:1013E000099583ED898381E98A838091130890911F
:1013F0001408DC01ED91FC910688F789E02D6EE27E
:101400000995182F8091130890911408DC01ED9133
:10141000FC91048CF58DE02D22E0AE014F5F5F4F13
:101420006FE20995412F477C48688091130890919D
:101430001408DC01ED91FC91028CF38DE02D6EE23D
:1014400009958091130890911408DC01ED91FC91AD
:10145000028CF38DE02D4FE561E1099520E034E247
:1014600044E759E4C701B6010E94A0200E949122DE
:101470000E943D0281E00F900F90DF91CF911F916C
:10148000FF90EF90DF90CF9008950E94E00180E000
:10149000F2CFCF93DF93C3E1D8E088819981DC015B
:1014A000ED91FC910688F789E02D64E209958C8323
:1014B000DF91CF9108958091180890911908A0911B
:1014C0001A08B0911B080196A11DB11D8093180840
:1014D00090931908A0931A08B0931B0880911508DF
:1014E000909116088130910551F483E090E090933B
:1014F00016088093150881E08093A5070895029748
:10150000D1F784E090E0F3CFFC0101900020E9F7EF
:101510003197AF01481B590BBC0185EB97E00C9448
:10152000F4048F929F92AF92BF920F931F93CF9329
:10153000DF93CDB7DEB7A1970FB6F894DEBF0FBE2D
:10154000CDBF19A2423008F44AE08E010F5D1F4F53
:10155000842E912CB12CA12CA50194010E94DE2295
:10156000E62FB901CA01EA30F4F4E05DD801EE9348
:101570008D01232B242B252B79F790E080E0109709
:1015800019F0CD010E94840AA1960FB6F894DEBF2F
:101590000FBECDBFDF91CF911F910F91BF90AF9044
:1015A0009F908F900895E95CE1CFCF93DF930E94E5
:1015B000840AEC0184EB96E00E94840A8C0F9D1F44
:1015C000DF91CF910895CF93DF930E949A03EC01AE
:1015D00084EB96E00E94840A8C0F9D1FDF91CF91CF
:1015E000089584E291E00E949A034AE063E070E08B
:1015F00080E090E00E94910A82E291E00E949A03CA
:101600004AE060E070E0CB010E94910A80E291E044
:101610000E949A034AE060E070E0CB010E94910AC8
:101620008DE191E00C94E30A0C94840A0F931F93CC
:10163000CF93DF938C01EB0184E191E00E949A0348
:10164000C8010E94140B8EEF90E00E949A03CE0115
:101650000E94140B82EB91E0DF91CF911F910F91CB
:101660000C94D50A6115710521F0FB01208121112F
:1016700006C065EB71E00E94160B80E0089581E0E2
:1016800008956DEB71E00C94160B67EC71E00C940F
:10169000160BCF93DF93EC0185EF90E00E949A0345
:1016A000CE010E94140B87EE90E0DF91CF910C9455
:1016B000E30A4F925F926F927F928F929F92AF92C6
:1016C000BF92CF92DF92EF92FF920F931F93CF932F
:1016D0006B017C01742EAC019B010E94C522882302
:1016E00099F081ED91E0CF911F910F91FF90EF90D4
:1016F000DF90CF90BF90AF909F908F907F906F9032
:101700005F904F900C94840A46015701E894B7F813
:101710002FEF3FEF4FE75FE7C501B4010E94C522FD
:1017200081110DC02FEF3FEF4FE75FE7C501B40117
:101730000E943A2018161CF485ED91E0D4CF2FEFCB
:101740003FEF4FE75FE4C701B6010E94C0221816C1
:101750001CF489ED91E0C7CF2FEF3FEF4FE75FEC2F
:10176000C701B6010E943A2087FDF3CF20E030E0A8
:10177000A901C701B6010E943A2010E000E087FFEE
:101780000AC06DE285EB97E00E9484038C01F7FAB2
:10179000F094F7F8F094C0E060E070E080E09FE340
:1017A0007C1641F020E030E040E251E40E941F222C
:1017B000CF5FF6CFA70196010E94B3212B013C0118
:1017C0000E9491224B015C014AE00E94910A7C0137
:1017D000E00EF11ECC23C1F1C501B4010E943F20EF
:1017E0009B01AC01C301B2010E94B2214B015C011B
:1017F0006EE285EB97E00E948403E80EF91EC1506B
:1018000018F120E030E040E251E4C501B4010E944B
:10181000A0202B013C010E9491224B01B12CA12C54
:101820004AE0C501B4010E94910AE80EF91EC50103
:10183000B4010E943F209B01AC01C301B2010E9490
:10184000B2214B015C01DBCFC701CF911F910F91FA
:10185000FF90EF90DF90CF90BF90AF909F908F90D0
:101860007F906F905F904F900895CF92DF92EF92AC
:10187000FF920F931F93CF93DF936C01BC018DED0B
:1018800091E00E94320B882341F18DED91E00E949E
:10189000490B00912307109124079BE6E92E91E064
:1018A000F92ED0E0C0E0B601F701828193810E9459
:1018B0006124892BD9F401151105C1F0CC0FDD1F6E
:1018C000CC0FDD1FC559DE4F88819981F801908BBF
:1018D0008787EB5AFF4F81E08083DF91CF911F9183
:1018E0000F91FF90EF90DF90CF9008952196F4E054
:1018F000EF0EF11CC330D105B1F6EFCF0F931F935C
:10190000CF93DF93CDB7DEB7CF5FD1090FB6F89491
:10191000DEBF0FBECDBF9E012A5F3E4FF901419150
:1019200051919F018E010F5F1F4F8FEFF8011192B0
:101930008A95E9F76FEF70E0C8010E949A248F3F03
:10194000910541F038F0C150DF4F1882CF5FD04091
:101950008DEF90E0AC01B80185EB97E00E94F404B4
:1019600086EB96E00E94D50AC150DF4F0FB6F8947F
:10197000DEBF0FBECDBFDF91CF911F910F910895B4
:10198000FF920F931F93CF93DF93CDB7DEB760978E
:101990000FB6F894DEBF0FBECDBFF42E8E010F5FE1
:1019A0001F4F20E1F80111922A95E9F7262F30E028
:1019B000AC0160E170E0C8010E94C4051F930F9361
:1019C0008F2D0F2C000C990B9F93FF9286E694E0CD
:1019D0009F938F931F921F921F921F921F9281E0DD
:1019E0008F9388EE91E09F938F930E947E0C0FB6A9
:1019F000F894DEBF0FBECDBF60960FB6F894DEBF81
:101A00000FBECDBFDF91CF911F910F91FF90089531
:101A1000AF92BF92CF92DF92EF92FF920F931F93FC
:101A2000CF93DF93653008F46CC07C01BC016C5F20
:101A30007F4F8C0120E0F80131918F01311101C0FD
:101A40002F5F60177107B9F7243009F45AC0EC0111
:101A500050E0299130E0F901F595E795D901B59568
:101A6000A795B595A795690173E0D594C7947A9524
:101A7000E1F7BF016A276C255901F4E0B594A794FA
:101A8000FA95E1F76A256170AC25A2275901B5E006
:101A9000B594A794BA95E1F7AA25A0FD6260EC255C
:101AA000E22776E0359527957A95E1F72E2720FDF8
:101AB0006460560F0C171D0761F6511122C0FC011E
:101AC000348167E0F70121917F01522728E0752FCB
:101AD000550F77FD56272150D1F7CE15DF0591F729
:101AE00065E0351364E00E94C00C81E0DF91CF9186
:101AF0001F910F91FF90EF90DF90CF90BF90AF902C
:101B0000089580E0F3CF7F928F929F92AF92BF9221
:101B1000CF92DF92EF92FF920F931F93CF93DF93B9
:101B2000CDB7DEB7EB970FB6F894DEBF0FBECDBFD3
:101B30009E012F5F3F4F790127E1F70111922A950E
:101B4000E9F76E32A8F480E0EB960FB6F894DEBFAA
:101B50000FBECDBFDF91CF911F910F91FF90EF90FE
:101B6000DF90CF90BF90AF909F908F907F9008951F
:101B7000DC01F70190E02D9190FD99C080E1289F54
:101B80009001112420839F5F9E32A9F7142F65E1F5
:101B9000C7010E94ED052E893F893227232732276E
:101BA0008217930781F62D8169817A818B819C81CF
:101BB0000E940623062FD72EC82EB92E21117CC0D5
:101BC00080E17E0198E2E90EF11CF701282F1192C5
:101BD0002A95E9F718AE19AE1AAE1BAE9E812F8179
:101BE0002E839F83EBE5F1E0DE01589601900D9284
:101BF0008A95E1F7FE01F89690E0BF01A92FA6951E
:101C000026E030E02C0F3D1F2A0F311DD9018C91A9
:101C100090FD02C082958F708F70A8E1B0E0AC0F8C
:101C2000BD1FA80FB11D2C91822B81939F5F943013
:101C300029F744E050E0C7010E94A2056A857B8530
:101C40008C859D850E9406232F851F922F93FF92DE
:101C5000EF920E943F2020E030E04AE75EE30E94DE
:101C6000A0200E9491229F938F937F936F938E85E4
:101C700086958658282F082E000C330B3F938F93A0
:101C8000BF92CF92DF920F93812F012E000C990B00
:101C90009F931F9387E392E09F938F930E947E0C04
:101CA0000FB6F894DEBF0FBECDBF81E04DCF2F70D1
:101CB0008081282B219367CF213009F044CFEF801A
:101CC0004E2D64E087E00E94D305A82E4E8160E08F
:101CD00083E00E94D305F82E7884472D62E087E0E8
:101CE0000E94D305982E4E2D60E083E00E94D3051C
:101CF000E82E498560E087E00E94D305882E472DB5
:101D000060E081E00E94D305282F9F8596959E571D
:101D1000492F092E000C550B5F939F938A859B8555
:101D20009827892798276AE070E00E94CA22062E29
:101D3000000C770B7F936F938D858F938C858F939A
:101D4000322F3F938F92EF929F92FF92AF92BF926A
:101D5000CF92DF920F93812F012E000C990B9F934E
:101D60001F938BEB92E09F938F930E947E0C98CFF2
:101D70000F931F93CF93DF93CDB7DEB7CF5FD1091A
:101D80000FB6F894DEBF0FBECDBF9E012A5F3E4F57
:101D9000F901419151919F018E010F5F1F4F8FEF0C
:101DA000F80111928A95E9F76FEF70E0C8010E947F
:101DB0009A248F3F910541F038F0C150DF4F1882CF
:101DC000CF5FD0408DEF90E0AC01B80185EB97E09C
:101DD0000E94F404C150DF4F0FB6F894DEBF0FBE6F
:101DE000CDBFDF91CF911F910F9108954F925F92D8
:101DF0006F927F928F929F92AF92BF92CF92DF921B
:101E0000FF920F931F93CF93DF93CDB7DEB7609709
:101E10000FB6F894DEBF0FBECDBF623208F4CCC05F
:101E2000FC0124812111C8C0F42E8C0160E20E94C3
:101E3000ED05F80120A131A18217930709F0BCC07C
:101E4000CE0101966C0180E1F60111928A95E9F7C5
:101E500024E030E0A80160E170E0C6010E94C40502
:101E6000F801638D748D90E080E00E943F2020E0B7
:101E700030E048EC52E40E941F224B015C01F80163
:101E80006689778990E080E00E943F2020E030E082
:101E900048EC52E40E941F222B013C018F2D0F2C95
:101EA000000C990B9F93FF92DF92CF928AE293E00E
:101EB0009F938F9382E393E09F938F931F921F9240
:101EC0001F921F921F9281E08F938CE393E09F9368
:101ED0008F930E94B80E8BE691E00E949A03F8015E
:101EE000628573858485958546E00E94590B83E65B
:101EF00091E00E949A03F80166857785808991892F
:101F000046E00E94590B8AE591E00E949A0342E064
:101F1000C301B2010E94590B8EE491E00E949A0322
:101F200042E0C501B4010E94590BF801878D1F9250
:101F30008F93868D282F082E000C330B3F938F93A1
:101F4000858D1F928F93828D8F93818D8F93808D3E
:101F50001F928F9385898F9384898F9383898F9321
:101F600082898F9381858F9380858F9387818F93CB
:101F700086818F9381EA93E09F938F930E947E0CDA
:101F80000FB6F894DEBF0FBECDBF81E060960FB6EE
:101F9000F894DEBF0FBECDBFDF91CF911F910F919F
:101FA000FF90DF90CF90BF90AF909F908F907F90E9
:101FB0006F905F904F90089580E0E8CFAF92BF920E
:101FC000DF92EF92FF920F931F93CF93DF93CDB7E2
:101FD000DEB7EC970FB6F894DEBF0FBECDBFFC01A5
:101FE000F080F7FE08C0653030F0F6FE06C0938141
:101FF000995F691718F480E073C095E0D42E8F01C3
:102000009F01290F311DF9013297A080215031091C
:10201000F9018081BA2CA82E6EEF690FC8010E94C9
:10202000ED05A816B90639F78F2D8F7B8AAFF80119
:1020300081818BAF82818CAF9E012F5F3F4F7901F1
:1020400089E0F90111928A95E9F743E050E0BE0179
:10205000665C7F4FC9010E94A205FF92EF928D2D11
:102060000D2C000C990B9F93DF921F921F921F92D1
:1020700081E08F931F928F9386EF93E09F938F93CE
:102080000E94B80E8AE494E00E94140BF80180814B
:102090000FB6F894DEBF0FBECDBF86FF31C089E317
:1020A000F70111928A95E9F785E594E00E94140BF7
:1020B000F80123812F5F30E0A8014C5F5F4F69E397
:1020C00070E0C7010E94C405C7010E94140B85E59A
:1020D00094E00E94140B84E392E00E94D50A81E010
:1020E000EC960FB6F894DEBF0FBECDBFDF91CF9157
:1020F0001F910F91FF90EF90DF90BF90AF900895E8
:1021000087E594E0E6CF8F929F92AF92BF92CF92F5
:10211000DF92EF92FF920F931F93CF936F3F09F4DB
:1021200096C07A01C62F662309F476C0613009F49F
:1021300086C0623009F485C0633009F484C067301A
:1021400009F483C0A62EB12CF501E257FE4FE491AD
:10215000EE2309F47CC0452B09F479C007E018E0B0
:10216000E23011F010E000E0D801ED91FC91119700
:10217000808117968C93179718968D909C90640188
:102180008114910421F4D12CC12C1AC06C01F601E8
:102190008481C81311C023E0A701B601C801CF9103
:1021A0001F910F91FF90EF90DF90CF90BF90AF9075
:1021B0009F908F900C94390785819681009731F715
:1021C00087E090E00E943323DC0111961C921E925E
:1021D00012961C921297892BD1F11496CC931497D6
:1021E00083E012968C93129716961C921E92159766
:1021F000F501E355FE4FE4911396EC93139789286C
:1022000039F4F801B187A08723E0A701BD01C6CF4B
:10221000F601B683A583F8CFC2E08C2F0E94790522
:10222000B7018C2FCF911F910F91FF90EF90DF900E
:10223000CF90BF90AF909F908F900C940502C3E019
:10224000ECCFC1E0EACFC0E0E8CFC4E0E6CFCF9169
:102250001F910F91FF90EF90DF90CF90BF90AF90C4
:102260009F908F900895CF938FEF80934C0198E0CB
:1022700090934D0194E090934E0197E090934F011D
:1022800080935001809351019AE090935201809382
:1022900053018093540184E00E9479056BE57AE054
:1022A00084E00E94050249E45AE0609152018FE502
:1022B00098E00E9483100E942309C82F81110E9478
:1022C000E7018C2FCF910895AF92BF92CF92DF920A
:1022D000EF92FF920F931F93CF93DF93CDB7DEB7AB
:1022E000C65BD1090FB6F894DEBF0FBECDBF8C011F
:1022F000C42EFC018481823009F0B9C069E1C801B3
:102300000E94ED05F801218D328D8217930709F0A7
:1023100060C180E8D82E9E012F5F3F4F7901F901FF
:102320002D2D11922A95E9F7F80183818F938281EF
:102330008F9381818F9380818F938CE594E09F931D
:102340008F9381E694E09F938F931F921F921F9229
:102350001F921F9281E08F938FE694E09F938F935B
:102360001F92DF92FF92EF920E946A24C7010E949F
:10237000140BF7012D2D11922A95E9F78C2D0C2CB9
:10238000000C990B9F93CF92F80185858F938485DC
:102390008F9383858F9382858F9381858F9380859B
:1023A0008F9387818F9386818F9382EC94E09F93A4
:1023B0008F931F92DF92FF92EF920E946A240FB6D2
:1023C000F894DEBF0FBECDBFC7010E94140B5E01A3
:1023D0003BEAA30EB11C8CE0F50111928A95E9F756
:1023E000F801278930E0A8014E5E5F4F6CE070E095
:1023F000C5010E94C405F7012D2D11922A95E9F718
:10240000F801808D282F082E000C330B3F938F93FB
:10241000BF92AF9281898F9380898F9387858F93A5
:1024200086858F938AEF94E09F938F931F92DF921C
:10243000FF92EF920E946A24C7010E94D50A0FB64C
:10244000F894DEBF0FBECDBF81E0CA54DF4F0FB698
:10245000F894DEBF0FBECDBFDF91CF911F910F91DA
:10246000FF90EF90DF90CF90BF90AF9008958330B2
:1024700009F0AFC064E2C8010E94ED05F80124A193
:1024800035A18217930709F0A4C080E89E012F5F51
:102490003F4F7901F901282F11922A95E9F72C2D48
:1024A0000C2C000C330B3F93CF92F80193819F9338
:1024B00092819F9391819F9390819F932CE534E02B
:1024C0003F932F9325E235E03F932F931F921F9266
:1024D0001F921F921F9291E09F9321E335E03F935B
:1024E0002F931F928F93FF92EF920E946A24C7014D
:1024F0000E94140B8AEAF701282F11922A95E9F716
:10250000F80197899F9396899F9395899F939489C2
:102510009F9393899F9392899F9391899F93908989
:102520009F9397859F9396859F939585292F092E35
:10253000000C330B3F939F9394851F929F93938539
:102540001F929F9392851F929F9391859F93908551
:102550009F9397819F9396819F932FE835E03F93B8
:102560002F931F928F93FF92EF920E946A240FB6CF
:10257000F894DEBF0FBECDBFC7010E94140B80E5EB
:10258000F701282F11922A95E9F7F80193A19F935B
:1025900092A19F9391A19F9390A19F93978D9F93B9
:1025A000968D9F93958D9F93948D9F93938D9F93DD
:1025B000928D9F93918D9F93908D9F9325EF35E002
:1025C0003F932F931F928F93FF92EF920E946A2462
:1025D00033CF80E03ACFCF93DF93EC01BC0188E1A9
:1025E00096E00E94320B8823F9F0CE010E94A31ED0
:1025F000C82F88E196E0CE3F24F4DF91CF910C9470
:10260000410BC23124F0DF91CF910C94450B0E9415
:10261000490BE0912307F0912407309729F0C687F2
:10262000EB5AFF4F81E08083DF91CF910895CF93E4
:10263000DF93EC01BC018FE196E00E94320B88230E
:1026400009F1CE010E94A31EC82F8FE196E0C7FFBB
:1026500004C0DF91CF910C94410BC23024F0DF9184
:10266000CF910C94450B0E94490BE0912307F09108
:102670002407309739F0ED5AFF4F0C2E000CDD0B7C
:10268000D183C083DF91CF910895CF93DF93EC0185
:10269000BC0187E296E00E94320B8823F9F0CE015C
:1026A0000E94A31EC82F87E296E0C7FF04C0DF91F7
:1026B000CF910C94410BC23024F0DF91CF910C9458
:1026C000450B0E94490B80912307909124070097A6
:1026D00029F08E5A9F4FC170FC01C083DF91CF91CA
:1026E00008952F923F924F925F926F927F928F92B6
:1026F0009F92AF92BF92CF92DF92EF92FF920F9391
:102700001F93CF93DF93CDB7DEB7C258D1090FB671
:10271000F894DEBF0FBECDBF8C01BC018DE796E003
:102720000E94320B882309F412C1F80101900020A5
:10273000E9F73197E01B8DE796E0E430D8F4CE5707
:10274000DF4F0FB6F894DEBF0FBECDBFDF91CF9144
:102750001F910F91FF90EF90DF90CF90BF90AF90BF
:102760009F908F907F906F905F904F903F902F90B1
:102770000C94410BEB35D8F0CE57DF4F0FB6F894E1
:10278000DEBF0FBECDBFDF91CF911F910F91FF90A4
:10279000EF90DF90CF90BF90AF909F908F907F9001
:1027A0006F905F904F903F902F900C94450B0E943C
:1027B000490B9E012F5F3F4F490180E8F9011192BB
:1027C0008A95E9F778016701FFEFCF1ADF0AF70171
:1027D00080810E940709803408F481C0F701E01B62
:1027E000F10B9F010F2E000C440B550BA2E05695E8
:1027F000479537952795AA95D1F7A3E0B0E00E94B9
:1028000061216B017C01E370FF27E230F10509F4DF
:1028100068C0339709F46BC0E2E04E2E512C612C56
:10282000712C54014C145D046E047F0408F065C0E3
:10283000F80180810E940709CF57DF4F8883C15874
:10284000D040F80181810E940709282E312CCF57F2
:10285000DF4F2881C158D040F4E02F9FC0011124E0
:10286000910144E0359527954A95E1F7822BF501D2
:102870008083F80182810E940709282F30E0CF571A
:10288000DF4F39832883C158D04054E0220C331CD9
:102890005A95E1F7C9019595879595958795282AC9
:1028A000F5012182F80183810E940709CF57DF4F8C
:1028B00028813981C158D04076E0220F331F7A95A4
:1028C000E1F7822BF50182830C5F1F4FF3E0AF0E1F
:1028D000B11C23E0420E511C611C711CA3CF760178
:1028E00072CFFFEFCF1ADF0AEF0AFF0A95CF22E07F
:1028F000C20ED11CE11CF11C8FCFC701B60123E031
:1029000030E040E050E00E94DE2261307105810538
:102910009105B9F1623071058105910509F444C052
:1029200000912307109124070115110581F0F0E4AF
:10293000FC1568F04C2D50E0B401C80142960E948D
:102940005824F801C18AEA5AFF4F81E08083CE57AC
:10295000DF4F0FB6F894DEBF0FBECDBFDF91CF9132
:102960001F910F91FF90EF90DF90CF90BF90AF90AD
:102970009F908F907F906F905F904F903F902F909F
:102980000895F80180810E940709782EF80181815D
:102990000E940709F4E07F9E9001112482958F70B8
:1029A000822BF5018083BCCFF80180810E9407094A
:1029B000582EF80181810E940709682E712CF4E0DD
:1029C0005F9EC0011124930194E0359527959A9557
:1029D000E1F7822BF5018083F80182810E940709CB
:1029E00024E0660C771C2A95E1F786958695682A7F
:1029F000F501618295CFCF92DF92EF92FF927C0139
:102A0000BC0180E396E00E94320B8823C9F1C70124
:102A10000E949F1E6B017C0126E636E646E250E4EA
:102A20000E943A2087FF08C080E396E0FF90EF9075
:102A3000DF90CF900C94410B20E030E04AEF53E45C
:102A4000C701B6010E94C022181644F480E396E044
:102A5000FF90EF90DF90CF900C94450B80E396E0D1
:102A60000E94490BE0912307F0912407309741F031
:102A7000C282D382E482F582EB5AFF4F81E08083E9
:102A8000FF90EF90DF90CF900895CF92DF92EF927A
:102A9000FF927C01BC0185E396E00E94320B882303
:102AA000C9F1C7010E949F1E6B017C0120E030E04C
:102AB00044ED53E40E943A2087FF08C085E396E086
:102AC000FF90EF90DF90CF900C94410B20E030E02E
:102AD0004FEF53E4C701B6010E94C022181644F418
:102AE00085E396E0FF90EF90DF90CF900C94450B3C
:102AF00085E396E00E94490BE0912307F0912407BB
:102B0000309741F0C286D386E486F586EB5AFF4FB4
:102B100081E08083FF90EF90DF90CF900895CF9277
:102B2000DF92EF92FF927C01BC0188E396E00E9465
:102B3000320B8823C9F1C7010E949F1E6B017C01E3
:102B400020E030E044ED53E40E943A2087FF08C0C3
:102B500088E396E0FF90EF90DF90CF900C94410BCC
:102B600020E030E04FEF53E4C701B6010E94C022DD
:102B7000181644F488E396E0FF90EF90DF90CF9032
:102B80000C94450B88E396E00E94490BE0912307E3
:102B9000F0912407309741F0C682D782E086F18613
:102BA000EB5AFF4F81E08083FF90EF90DF90CF9052
:102BB0000895CF93DF93EC01BC0182E496E00E947C
:102BC000320B882309F47AC069E476E0CE010E94D2
:102BD0006124892BD1F48FE496E00E948F1586E55D
:102BE00096E00E94FB1489E596E00E94350C8BE587
:102BF00096E00E9445138BE596E00E94171382E44D
:102C000096E0DF91CF910C94490B6DE576E0CE0113
:102C10000E946124892BF9F263E676E0CE010E94DE
:102C20006124892B99F48AE696E00E948F1586E547
:102C300096E00E94FB1489E596E00E94350C8BE536
:102C400096E00E94451389E596E0D7CF60E776E0ED
:102C5000CE010E946124892B59F48AE696E00E94F5
:102C60008F1586E596E00E94FB148BE596E0E5CF94
:102C700067E776E0CE010E946124892B69F48AE639
:102C800096E00E94451580E896E00E94EB1289E5E7
:102C900096E00E94350CB3CF63E876E0CE010E9447
:102CA0006124892B19F488E896E0EBCF65EB71E09D
:102CB00082E496E0DF91CF910C94160BDF91CF91D7
:102CC0000895CF93DF93EC01BC018EE896E00E945B
:102CD000320B882309F455C063E976E0CE010E94E7
:102CE0006124892BD1F48FE496E00E948F1586E54C
:102CF00096E00E94FB1489E596E00E94350C8BE576
:102D000096E00E9445138BE596E00E9417138EE82B
:102D100096E0DF91CF910C94490B6BE976E0CE0100
:102D20000E946124892B99F48AE696E00E948F150F
:102D300086E596E00E94FB1489E596E00E94350C3A
:102D40008BE596E00E94451389E596E0DECF63EAC5
:102D500076E0CE010E946124892B59F48AE696E040
:102D60000E948F1586E596E00E94FB148BE596E0A5
:102D7000E5CF65EB71E08EE896E0DF91CF910C94A2
:102D8000160BDF91CF9108951F920F920FB60F92FD
:102D900011248F939F938091E1009091E100937FA4
:102DA0009093E10083FF0FC01092E90091E09093AF
:102DB000EB001092EC0092E39093ED001092B407B8
:102DC00098E09093F00082FF1CC093E09093E9009C
:102DD0009091F200992319F09AE39093E800909172
:102DE0003607992329F09091360791509093360732
:102DF0009091B307992329F09091B3079150909344
:102E0000B30784FF18C08091E2008E7E81608093BA
:102E1000E2008091E1008F7E8093E100809137078E
:102E20008E7E8061809337079F918F910F900FBEA8
:102E30000F901F90189580FFF7CF8091E2008E7E53
:102E400080618093E2008091E1008E7E8093E100BA
:102E5000809137078E7E8160E5CF1F920F920FB66B
:102E60000F921124CF92DF92EF92FF920F931F9354
:102E70002F933F934F935F936F937F938F939F9382
:102E8000AF93BF93EF93FF93CF93DF93CDB7DEB7AD
:102E90006C97DEBFCDBF1092E9008091E80083FF00
:102EA0002FC089E0FE017596EE2EDF2E815029F0AD
:102EB0009091F10090833196F9CF84E68093B30727
:102EC00082EF8093E8008D8987FF39C09091E800F8
:102ED00090FFFCCF982F907609F033C19E894F89DF
:102EE000588D2F89F88C911131C0803861F580910F
:102EF00038078093F1001092F1008EEF8093E80084
:102F00006C960FB6F894DEBF0FBECDBFDF91CF91A8
:102F1000FF91EF91BF91AF919F918F917F916F91B1
:102F20005F914F913F912F911F910F91FF90EF90E3
:102F3000DF90CF900F900FBE0F901F9018959EEFCF
:102F40009093E800C7CF1092F100D5CF913059F49B
:102F50008111D3CF4130510581F6809138078D7FA3
:102F600080933807CACF933049F48111C6CF4130DE
:102F7000510519F6809138078260F2CF953041F4FF
:102F80008091E80080FFFCCF20682093E300B5CF5C
:102F9000963009F0A8C00B8D1C8D22E01092E9003C
:102FA0001092340710923307F2122EC0109232079B
:102FB000109231070E9453031F8299E09983FA828D
:102FC00091E09E8390EA98879AEF99872091330742
:102FD00030913407275F3F4F3C832B838D831092C2
:102FE000E9001092340710923307109332070093D0
:102FF000310749E050E0BE016F5F7F4F80E00E94E3
:103000002D030E94530379CF1093320700933107A9
:103010000E94B802DC0112960D911C910115110558
:1030200009F457C1D801ED91FC910480F581E02DA0
:103030006E2D7D2DC8010995009709F045C1F80155
:1030400000851185EBCFF3E0FF120EC08F89882336
:1030500009F440C0823061F440E86CE08CE492E016
:103060000E94FA02811149CF81E28093EB0048CFA0
:10307000813029F440E868E083E492E0F1CF8330C6
:1030800099F70E94B802DC011296ED90FC908E0137
:103090000F5F1F4F6801E114F10479F0D701ED9142
:1030A000FC910680F781E02DB801C7010995080F52
:1030B000111DF701E084F184EECFD8011C92F601D6
:1030C00001900020E9F73197BF016C197D0940E0BC
:1030D000C601C6CF6DE272E0FB01449150E080E88A
:1030E0000E942D030ACF973009F4BECF983021F407
:1030F00081E08093F10001CF993009F0FECE83701A
:1031000009F0B2CFE8E7F1E081E031E096E3219108
:10311000222371F08093E9003093EB00DF011197D7
:103120002C912093EC009093ED008F5F873079F71E
:103130008EE78093EA001092EA008F898093B407AB
:10314000DCCE8B8D9C8D1092E9001092340710928A
:1031500033079093320780933107898D81119AC08C
:103160008E899D89913A49F4813209F07DCF47E0FB
:1031700050E064E071E080E0B3CF913209F074CFA9
:10318000833269F48F89988DB0E0A0E080930001CC
:1031900090930101A0930201B0930301AECE80325F
:1031A000A9F48091E80082FFFCCF88E0E4E0F1E040
:1031B000815029F09091F10090833196F9CF84E607
:1031C0008093B3078BEF8093E80097CE823209F0AB
:1031D00094CE8F8980930B01EEEFFFE78591949158
:1031E0008B3F9C4D51F1E0E0F8E08091040190911B
:1031F0000501A0910601B0910701803B9440A10513
:10320000B105F1F480910B0180FD1AC0EE3F8AE018
:10321000F80789F587E797E79183808380916000BD
:103220008093350788E19BE00FB6F894A8958093CA
:1032300060000FBE9093600060CEEEEFFAE0D5CF55
:10324000808191818737974709F057CEA895809163
:1032500060008861809360008091350780936000F2
:10326000EE3F2AE0F20789F08091FE0A9091FF0A72
:103270009183808342CE808191818737980751F274
:103280009093FF0A8093FE0AC5CF1092FF0A109216
:10329000FE0A33CE0E94B802DC0112960D911C91F9
:1032A0000115110509F4E0CED801ED91FC910190D2
:1032B000F081E02D6E2D7D2DC801099581111DCE67
:1032C000F80100851185ECCF181619060CF415CEFF
:1032D000CBCEF1E0FF12B7CE61E372E0FDCE1F92DC
:1032E0000F920FB60F9211242F933F938F939F93BA
:1032F000AF93BF9380919D0790919E07A0919F07E8
:10330000B091A00730912C0726E0230F2D3758F5F8
:103310000296A11DB11D20932C0780939D079093C9
:103320009E07A0939F07B093A00780912D079091CF
:103330002E07A0912F07B09130070196A11DB11D56
:1033400080932D0790932E07A0932F07B0933007FB
:10335000BF91AF919F918F913F912F910F900FBE91
:103360000F901F90189529E8230F0396A11DB11DFA
:10337000D2CF1F920F920FB60F9211242F933F932B
:103380004F935F936F937F938F939F93AF93BF936D
:10339000EF93FF93E0914A01F0914B010995FF9162
:1033A000EF91BF91AF919F918F917F916F915F91BD
:1033B0004F913F912F910F900FBE0F901F90189536
:1033C0001F920F920FB60F9211242F933F934F939A
:1033D0005F936F937F938F939F93AF93BF93EF937D
:1033E000FF93E0914801F09149010995FF91EF9118
:1033F000BF91AF919F918F917F916F915F914F910D
:103400003F912F910F900FBE0F901F9018951F9214
:103410000F920FB60F9211242F933F934F935F9308
:103420006F937F938F939F93AF93BF93EF93FF938C
:10343000E0914601F09147010995FF91EF91BF910D
:10344000AF919F918F917F916F915F914F913F913C
:103450002F910F900FBE0F901F9018951F920F92F3
:103460000FB60F9211242F933F934F935F936F9357
:103470007F938F939F93AF93BF93EF93FF93E091CD
:103480004401F09145010995FF91EF91BF91AF91F2
:103490009F918F917F916F915F914F913F912F916C
:1034A0000F900FBE0F901F9018951F920F920FB69E
:1034B0000F9211242F933F934F935F936F937F93BA
:1034C0008F939F93AF93BF93EF93FF93E09142014C
:1034D000F09143010995FF91EF91BF91AF919F91B9
:1034E0008F917F916F915F914F913F912F910F90AD
:1034F0000FBE0F901F9018951F920F920FB60F924C
:1035000011241F932F933F934F935F936F937F9358
:103510008F939F93AF93BF93CF93DF93EF93FF93DB
:10352000E0910708F0910808808180932807809136
:103530000E082091280790910C083091280740919F
:103540000D08C0912807C095C4239323C92B822757
:103550001C2F18238091280780930E08C0910F0814
:10356000D09110082097B1F08B81912F982371F0A2
:1035700090912807892391E009F490E09093270720
:103580008C8180932607E881F98109950D80DE8181
:10359000C02DE8CF9BB380910B08982321F09BB3FB
:1035A000892B8BBBBDCFFF91EF91DF91CF91BF9165
:1035B000AF919F918F917F916F915F914F913F91CB
:1035C0002F911F910F900FBE0F901F901895E5EB54
:1035D000F7E01382128288EE93E0A0E0B0E08483EB
:1035E0009583A683B78382E891E0918380838FEFF0
:1035F0009FEF95878487EBE7F2E085919491E7E070
:10360000F8E0918380838BE690E09383828381E06E
:1036100084831582168211861086E5E0F8E090E535
:1036200090838183AFE5B8E084E991E011969C93A3
:103630008E938CE491E013969C938E931297E3E122
:10364000F8E0B183A083138212821482158216825D
:103650001782108682E481870E94BB08909312082B
:10366000809311080895CF93DF93CDB7DEB7C2578B
:10367000D1090FB6F894DEBF0FBECDBF789484B5E4
:10368000826084BD84B5816084BD85B5826085BD5E
:1036900085B5816085BD80916E00816080936E00EC
:1036A00010928100809181008260809381008091DE
:1036B000810081608093810080918000816080938F
:1036C00080008091910082608093910080919100B0
:1036D0008160809391008091900081608093900040
:1036E0008091C10084608093C1008091C10082609C
:1036F0008093C1008091C10081608093C10080915E
:10370000C30081608093C3008091C0008260809379
:10371000C0008091C20081608093C20080917A00D5
:10372000846080937A0080917A00826080937A002E
:1037300080917A008E7F80937A0080917A008068F1
:1037400080937A001092B4071092380710923707CE
:103750008091D70081608093D70080EA8093D80061
:1037600089B58F7E89BD89B5826089BD09B400FEA7
:10377000FDCF61E070E080E090E00E94C1048091A4
:10378000D8008F7C80618093D8008091E000807F9A
:103790008093E0008091E1008E7E8093E1008DE0D7
:1037A0008093E20010910B016AE070E080E090E00D
:1037B0000E94C1041123B1F38FEF9FEF9093C207D2
:1037C0008093C10761E08DE00E946B0478940E94B1
:1037D00033118093A607882321F08BEA96E00E949C
:1037E000D50ACE0101962C011091A607111111C026
:1037F00089E592E00E94E30A68EE73E080E090E0E1
:103800000E94C104A0E0B0E0AB2B71F30E94000065
:10381000EBCFE0901108F0901208D7018D919C91A8
:10382000DC01ED91FC910084F185E02D09951816DD
:103830001906BCF4F70180819181DC01ED91FC91C6
:103840000284F385E02D099590919907903608F050
:103850007FC0E92FF0E0E75CF84F80838D3091F472
:103860001082E0911108F0911208DF01AB5ABF4FAE
:103870008C91882309F488C01C920E943311809394
:10388000A607C0CF8A3009F05FC010821092990756
:103890008CE6F20111928A95E9F7A9E3B7E00D9061
:1038A0000020E9F7CD018A5397408823D1F249E3FC
:1038B00057E0A0E000E030E020E0FA019191AF0194
:1038C000332309F448C0003648F46DE070E06C0F13
:1038D0007D1F600F711DFB0190830F5F2F5F281705
:1038E00060F3AC3008F04AC0A40DB52DB11D1C9298
:1038F000003608F045C0EDE0F0E0EC0FFD1FE00FF2
:10390000F11D10828981882309F4ABCF0CE011E00E
:10391000D8016D917C916115710571F0C2010E9411
:103920006124892B49F4D8011296ED91FC913097CE
:1039300019F0CE010D9609950C5F1F4FE8E3F1E0F9
:10394000E017F10729F78DCF9F5F9093990789CFF3
:103950001092990786CF9A3379F09D3011F29A3000
:1039600009F4BFCFAC3008F0B9CFB2016A0F711DB6
:10397000FB019083AF5FB2CF312FB0CF1C86B8CFA1
:10398000AD961FAEAD97BECFEA5AFF4F8081882318
:1039900009F413C110820E94BB087C0184E4F70182
:1039A0007196D20101900D928A95E1F7198120E07C
:1039B00034E244E759E4D7011A966D917D918D91D7
:1039C0009C911D970E94A0200E9491220E943D027E
:1039D000F7018685482F8E3F0CF44EEF8E300CF0A9
:1039E00066C14E5E4F714064809113089091140837
:1039F000DC01ED91FC91028CF38DE02D61E10995E4
:103A0000133408F012E48091150890911608892B60
:103A100039F0109216081092150880E00E946E018D
:103A20008091130890911408DC01ED91FC91028CB7
:103A3000F38DE02D4FE86CE3099580911308909188
:103A40001408DC01ED91FC91028CF38DE02D40E037
:103A500065E209958091130890911408DC01ED91BD
:103A6000FC91028CF38DE02D412F68E30995809144
:103A7000130890911408DC01ED91FC91048CF58DF4
:103A8000E02D212FAE014E5F5F4F60E00995E2E02F
:103A9000F0E0F0931608E09315088CE00E946E01A8
:103AA0008091130890911408DC01ED91FC9106803F
:103AB000F781E02D0995322E232EAE964FAFAE97AB
:103AC000AF965FAFAF97962E872E782E692E809196
:103AD000130890911408DC01ED91FC910680F781A8
:103AE000E02D0995E0962FAFE097E1963FAFE19783
:103AF000E2964FAFE297E3965FAFE397B62FA72F1B
:103B0000F82FE92F232D322DAE964FADAE97AF96FD
:103B10005FADAF97692D782D872D962D28513C4F9D
:103B20004F4F5F4F6F4F7F4F8F4F9F4F59016A012C
:103B30007B018C01E0962FADE097E1963FADE197D8
:103B4000E2964FADE297E3965FADE3976B2F7A2F46
:103B50008F2F9E2F0E94162308F0B1C0809113086A
:103B600090911408DC01ED91FC910680F781E02D25
:103B7000099559016A017B018C01232D322DAE96E6
:103B80004FADAE97AF965FADAF97692D782D872D6E
:103B9000962D0E94162311F008F091C0809115080F
:103BA00090911608049709F092CF0E9423090E9471
:103BB00033118093A6071092A5078091A50788234B
:103BC00009F48AC01092A50761E08DE00E94FA0313
:103BD0002FB7F89480919D0790919E07A0919F0721
:103BE000B091A0072FBF0596A11DB11D8093A1071D
:103BF0009093A207A093A307B093A4078091150800
:103C000090911608039709F067C00E94E001F090B8
:103C10001C088091130890911408DC01ED91FC912F
:103C2000008CF18DE02D2F2D4DE158E060E00995DD
:103C3000109117081695169511958FB7F894409125
:103C40009D0750919E0760919F077091A0078FBFBD
:103C50000E94E701E0911108F0911208ED5AFF4F20
:103C60008081813079F5EEE3F1E0F0939C07E093F9
:103C70009B07F2E0F0939A0700E080919A070817FB
:103C800058F5802F90E0880F991FE0919B07F091E5
:103C90009C07E80FF91F0190F081E02D412F6F2D57
:103CA0008DE198E00995811117C00F5FE6CF823151
:103CB00024F0455F4F71406697CE425FFBCF0E9474
:103CC000E00173CF88E391E090939C0780939B077A
:103CD00093E090939A07D0CF8091A1079091A2078B
:103CE000A091A307B091A407892B8A2B8B2B09F4F1
:103CF00089CD2FB7F89480919D0790919E07A09150
:103D00009F07B091A0072FBF4091A1075091A20734
:103D10006091A3077091A407481759076A077B07AA
:103D200008F070CD60E08DE00E94FA031092A107C8
:103D30001092A2071092A3071092A40763CD6627E2
:103D400077270C94C91EFC0188279927E8942191B4
:103D50002032E9F3293010F02E30C8F32B3241F035
:103D60002D3239F4689404C00E94C11E820F911D47
:103D7000219120532A30C0F31EF4909581959F4FD6
:103D800008957AE0979F902D879F802D910D1124A3
:103D90000895B0E0A0E0EFECFEE10C9472215C012C
:103DA0007B016115710519F0DB018D939C938501F1
:103DB0000F5F1F4FF501D0818D2F90E00E941920D9
:103DC0006C01892BB9F5DD32B9F50F5F1F4FD501B5
:103DD0001196DC91C1E05801F1E0AF1AB10843E05F
:103DE00050E064EB70E0C5010E942220892B69F548
:103DF000680182E0C80ED11C45E050E06FEA70E037
:103E0000C6010E942220892B21F4680197E0C90E87
:103E1000D11CE114F10419F0D701CD92DC9260E0DD
:103E200070E080E89FEFC111FFC060E070E080E8C3
:103E30009FE7FAC05801BBCFDB3229F485010E5F42
:103E40001F4FF501D181C0E0C6CF43E050E06CEADE
:103E500070E0C5010E942220892BE9F0F80110E0F2
:103E600000E020E030E0A9015F01B0ED8B2E8D0E67
:103E700089E08815C8F19C2E689491F88C2F887081
:103E8000C2FF16C0811102C00F5F1F4F3196D501CE
:103E9000DC91C92DE9CFE114F10429F00E5F1F4F29
:103EA000F7011183008360E070E080EC9FE7BCC005
:103EB000882311F001501109A5E0B0E00E946121B2
:103EC0009B01AC01220F331F441F551F280D311DCC
:103ED000411D511D283999E93907490799E15907C9
:103EE000A8F2C6609C2ED2CFAEEF8A1206C0C3FDE8
:103EF0003CC09C2E689493F8C9CFDF7DD534A9F5DA
:103F000080818D3239F4C061DF011296818162E0D7
:103F100070E006C0DF018B32C1F3119661E070E002
:103F200080535D01A61AB70A8A30F8F4E0E8CE168D
:103F3000ECE0DE065CF4B601660F771F660F771FB4
:103F4000C60ED71ECC0CDD1CC80ED11C5D01FFEFC8
:103F5000AF1ABF0A8C9180538A30A8F1C4FF03C006
:103F6000D194C194D1080C0D1D1DC1FF09C0E114ED
:103F7000F10431F081E0A81AB108D701AD92BC92EA
:103F8000CA01B9010E943F20C370C33009F49058A0
:103F90004B015C0120E030E0A9010E943A20882317
:103FA00009F440C0C3EED0E017FF05C0119501959C
:103FB0001109CBECD0E06E01B8E1CB1AD10880E258
:103FC000E82EF12C0FC0D501B1CFFE01259135911E
:103FD000459154910E191F09C501B4010E94A020FA
:103FE0004B015C01D501C4010E151F0574F7249720
:103FF000F594E794CC16DD06A9F78A2F880F8B2F4E
:10400000881F8F3F49F020E030E0A901C501B401CD
:104010000E943A20811106C082E290E090936408E9
:1040200080936308C501B401CDB7DEB7ECE00C9412
:104030008E2191110C940D21803219F089508550F8
:10404000C8F70895FB01DC014150504088F08D9184
:1040500081341CF08B350CF4805E659161341CF06A
:104060006B350CF4605E861B611171F3990B08953A
:10407000881BFCCF0E947C2008F481E00895E8941E
:1040800009C097FB3EF490958095709561957F4FA0
:104090008F4F9F4F9923A9F0F92F96E9BB2793954E
:1040A000F695879577956795B795F111F8CFFAF45E
:1040B000BB0F11F460FF1BC06F5F7F4F8F4F9F4F8F
:1040C00016C0882311F096E911C0772321F09EE8ED
:1040D000872F762F05C0662371F096E8862F70E053
:1040E00060E02AF09A95660F771F881FDAF7880F2D
:1040F0009695879597F90895990F0008550FAA0B83
:10410000E0E8FEEF16161706E807F907C0F01216EA
:104110001306E407F50798F0621B730B840B950BED
:1041200039F40A2661F0232B242B252B21F4089542
:104130000A2609F4A140A6958FEF811D811D0895DF
:104140000E94B3200C9427210E94192138F00E946C
:10415000202120F0952311F00C9410210C941621AD
:1041600011240C945B210E94382170F3959FC1F3B8
:10417000950F50E0551F629FF001729FBB27F00D15
:10418000B11D639FAA27F00DB11DAA1F649F66276A
:10419000B00DA11D661F829F2227B00DA11D621FB9
:1041A000739FB00DA11D621F839FA00D611D221F73
:1041B000749F3327A00D611D231F849F600D211D57
:1041C000822F762F6A2F11249F5750409AF0F1F0DA
:1041D00088234AF0EE0FFF1FBB1F661F771F881F43
:1041E00091505040A9F79E3F510580F00C9410214A
:1041F0000C945B215F3FE4F3983ED4F3869577956A
:104200006795B795F795E7959F5FC1F7FE2B880FE8
:10421000911D9695879597F9089599278827089570
:1042200097F99F6780E870E060E008959FEF80EC69
:10423000089500240A94161617061806090608950C
:1042400000240A9412161306140605060895092E72
:104250000394000C11F4882352F0BB0F40F4BF2BE1
:1042600011F460FF04C06F5F7F4F8F4F9F4F089521
:1042700057FD9058440F551F59F05F3F71F0479517
:10428000880F97FB991F61F09F3F79F087950895FC
:10429000121613061406551FF2CF4695F1DF08C01B
:1042A000161617061806991FF1CF86957105610538
:1042B00008940895E894BB2766277727CB0197F9E0
:1042C00008950E94A321A59F900DB49F900DA49FD7
:1042D000800D911D112408952F923F924F925F926D
:1042E0006F927F928F929F92AF92BF92CF92DF9206
:1042F000EF92FF920F931F93CF93DF93CDB7DEB76B
:10430000CA1BDB0B0FB6F894DEBF0FBECDBF0994FE
:104310002A88398848885F846E847D848C849B8455
:10432000AA84B984C884DF80EE80FD800C811B8163
:10433000AA81B981CE0FD11D0FB6F894DEBF0FBE92
:10434000CDBFED010895A29FB001B39FC001A39F0F
:10435000700D811D1124911DB29F700D811D1124BE
:10436000911D08955058BB27AA270E94CA210C947A
:1043700027210E94192138F00E94202120F039F4D1
:104380009F3F19F426F40C9416210EF4E095E7FBF8
:104390000C941021E92F0E94382158F3BA176207B4
:1043A00073078407950720F079F4A6F50C945A2139
:1043B0000EF4E0950B2EBA2FA02D0B01B901900140
:1043C0000C01CA01A0011124FF27591B99F0593F84
:1043D00050F4503E68F11A16F040A22F232F342FCC
:1043E0004427585FF3CF469537952795A795F0401A
:1043F0005395C9F77EF41F16BA0B620B730B840B2F
:10440000BAF09150A1F0FF0FBB1F661F771F881FE6
:10441000C2F70EC0BA0F621F731F841F48F487953E
:1044200077956795B795F7959E3F08F0B0CF939530
:10443000880F08F09927EE0F9795879508950E94A9
:1044400033220C9427210E94202158F00E94192128
:1044500040F029F45F3F29F00C94102151110C9485
:104460005B210C9416210E94382168F39923B1F343
:10447000552391F3951B550BBB27AA27621773078A
:10448000840738F09F5F5F4F220F331F441FAA1F1E
:10449000A9F335D00E2E3AF0E0E832D091505040DA
:1044A000E695001CCAF72BD0FE2F29D0660F771F88
:1044B000881FBB1F261737074807AB07B0E809F06E
:1044C000BB0B802DBF01FF2793585F4F3AF09E3FF3
:1044D000510578F00C9410210C945B215F3FE4F3BC
:1044E000983ED4F3869577956795B795F7959F5F36
:1044F000C9F7880F911D9695879597F90895E1E082
:10450000660F771F881FBB1F621773078407BA07E0
:1045100020F0621B730B840BBA0BEE1F88F7E0953B
:1045200008950E94402188F09F5798F0B92F99274D
:10453000B751B0F0E1F0660F771F881F991F1AF08E
:10454000BA95C9F714C0B13091F00E945A21B1E078
:1045500008950C945A21672F782F8827B85F39F077
:10456000B93FCCF3869577956795B395D9F73EF427
:1045700090958095709561957F4F8F4F9F4F0895CF
:104580000E947C2008F48FEF08950E947C20880B05
:10459000990B089597FB072E16F4009407D077FD2A
:1045A00009D00E941F2307FC05D03EF49095819509
:1045B0009F4F0895709561957F4F0895A1E21A2E3F
:1045C000AA1BBB1BFD010DC0AA1FBB1FEE1FFF1FB7
:1045D000A217B307E407F50720F0A21BB30BE40B07
:1045E000F50B661F771F881F991F1A9469F760954E
:1045F0007095809590959B01AC01BD01CF01089508
:10460000EE0FFF1F0590F491E02D0994692796277E
:10461000692778278727782708952A193B094C09A5
:104620005D096E097F09800B910B08952A153B05E2
:104630004C055D056E057F05800791070895AA1B4F
:10464000BB1B51E107C0AA1FBB1FA617B70710F07D
:10465000A61BB70B881F991F5A95A9F780959095AF
:10466000BC01CD0108950F931F93CF93DF93823048
:10467000910510F482E090E0E0916708F0916808FD
:1046800030E020E0B0E0A0E0309799F4211531054A
:1046900009F44AC0281B390B24303105D8F58A812A
:1046A0009B816115710589F1FB0193838283FE0172
:1046B00011C0408151810281138148175907E0F0F0
:1046C0004817590799F4109761F012960C931297B6
:1046D00013961C933296CF01DF91CF911F910F91CA
:1046E00008950093670810936808F4CF21153105E9
:1046F00051F04217530738F0A901DB019A01BD01BF
:10470000DF01F801C1CFEF01F9CF909368088093E2
:104710006708CDCFFE01E20FF31F819391932250E2
:10472000310939832883D7CF2091650830916608F5
:10473000232B41F4209157013091580130936608A2
:1047400020936508209155013091560121153105BE
:1047500041F42DB73EB74091590150915A01241BA5
:10476000350BE0916508F0916608E217F307A0F4B5
:104770002E1B3F0B2817390778F0AC014E5F5F4FB7
:104780002417350748F04E0F5F1F5093660840937B
:104790006508819391939FCFF0E0E0E09CCFCF93A9
:1047A000DF930097E9F0FC01329713821282A09107
:1047B0006708B0916808ED0130E020E01097A1F49F
:1047C00020813181820F931F209165083091660806
:1047D0002817390709F061C0F0936608E09365086F
:1047E000DF91CF910895EA01CE17DF07E8F54A81FE
:1047F0005B819E0141155105B1F7E901FB83EA8315
:1048000049915991C40FD51FEC17FD0761F48081C0
:1048100091810296840F951FE90199838883828193
:1048200093819B838A83F0E0E0E012968D919C91C6
:1048300013970097B9F52D913C911197CD010296F0
:10484000820F931F20916508309166082817390759
:1048500039F6309751F51092680810926708B093B6
:104860006608A0936508BCCFD383C2834081518181
:10487000840F951FC817D90761F44E5F5F4F888179
:104880009981480F591F518340838A819B8193836B
:1048900082832115310509F0B0CFF0936808E093C9
:1048A00067089ECFFD01DC01C0CF13821282D7CFF3
:1048B000FB01DC0102C001900D9241505040D8F73D
:1048C0000895FB01DC018D91019080190110D9F34D
:1048D000990B0895AEE0B0E0E0E7F4E20C947A21A1
:1048E0000D891E898F89988D26E02C831A83098370
:1048F00097FF02C080E090E801979E838D83AE0110
:10490000455E5F4F698D7A8DCE0101960E94C62467
:104910004D815E8157FD0AC02F81388542175307AC
:104920000CF49A01020F131FF80110822E96E4E096
:104930000C949621AEE0B0E0E0EAF4E20C947A2127
:104940008C01FA0186E08C831A83098377FF02C009
:1049500060E070E8615071097E836D83A901BF0139
:10496000CE0101960E94C6244D815E8157FD0AC08A
:104970002F813885421753070CF49A01020F131F39
:10498000F80110822E96E4E00C949621ABE0B0E0A2
:10499000ECECF4E20C946C217C013B018A01FC01FB
:1049A00017821682838181FFC8C1CE0101965C0106
:1049B000F7019381F30193FD859193FF81913F016D
:1049C000882309F453C1853239F493FD859193FF0F
:1049D00081913F01853229F4B70190E00E94B6260B
:1049E000E7CF912C212C312CFFE1F31538F08B32DD
:1049F00011F190F4803209F1833229F137FC3CC087
:104A000020ED280F2A3050F536FE20C08AE0989E0F
:104A1000200D1124922E06C08D3291F0803371F753
:104A2000689430F8F30193FD859193FF81913F01E4
:104A30008111DACF21C0689431F8689432F8F2CF4E
:104A4000689433F8EFCF689434F8ECCFEAE02E9E08
:104A5000200D1124222E689435F8E4CF8E3229F4EB
:104A600036FC04C1689436F8DDCF8C3619F46894AE
:104A700037F8D8CF8836B1F2982F9F7D9554933070
:104A8000E0F08336A1F18337C1F1833509F063C0CB
:104A90002801F2E04F0E511CF801C080D180692D31
:104AA00070E036FC02C06FEF7FEFC6010E94A026C7
:104AB0004C01689437F882010AC00C5F1F4FFFE376
:104AC000F98388248394912C6501E89437F833FEA8
:104AD0002DC0522C8114910471F5552009F468CF32
:104AE000B70180E290E00E94B6265A94F6CFF80112
:104AF000808189830E5F1F4FE4CF2801F2E04F0EC3
:104B0000511CF801C080D180692D70E036FC02C0D4
:104B10006FEF7FEFC6010E94AB264C018201D5CF1B
:104B2000B70180E290E00E94B6262A942814190466
:104B300009F0B0F7CECFF60137FC859137FE8191B1
:104B40006F01B70190E00E94B62651105A94F1E02F
:104B50008F1A9108BFCF843619F0893609F077C0D3
:104B6000F80137FE6BC060817181828193810C5F97
:104B70001F4FF32DFF763F2E97FF09C0909580952C
:104B8000709561957F4F8F4F9F4F689437F82AE05B
:104B900030E0A5010E94E626C82ECA188C2C432CB2
:104BA00036FE0CC0E89440F8C91440F434FE05C049
:104BB00032FC03C0F32DFE7E4F2E892C44FE95C09F
:104BC000FE01EC0DF11D8081803309F087C0242D9A
:104BD000297E422E842D8870582E43FC95C040FEBD
:104BE0008FC09C2C821418F42C0C922C981844FE24
:104BF00091C0B70180E390E00E94B62642FE09C052
:104C000088E790E041FE02C088E590E0B7010E948D
:104C1000B626C91408F48AC0CA94D12C9FEFC91AC9
:104C2000D90ACA0CDB1CF60182916F01B70190E032
:104C30000E94B626AC14BD04B1F74FCF60817181DC
:104C4000072E000C880B990B0E5F1F4F92CFD32CB1
:104C5000E894D4F82AE030E0853739F1232D297F14
:104C6000D22E8F3601F148F48835A9F0F7018681FC
:104C700097812B96E2E10C948821803749F08837A0
:104C8000A9F7D4FE02C06894D2F820E130E00DC04C
:104C90006894D4F8F6CF34FE03C0822F8660D82EF5
:104CA00020E132E002C028E030E0F801D7FE0FC07A
:104CB00060817181828193810C5F1F4FA5010E94E9
:104CC000E626C82ECA183D2CE89437F867CF6081D5
:104CD000718190E080E00E5F1F4FF0CF42FC02C078
:104CE000839478CF8394839475CF842D867809F448
:104CF00071CFF6CFB70180E290E00E94B626839490
:104D00008214C0F3512C73CF522C5818821408F41B
:104D10006ECFF8CF842D867809F47BCF8BE241FEED
:104D200080E247FC8DE2B70190E071CFB70180E3EC
:104D300090E00E94B6269A946CCF8FEF9FEF99CFA8
:104D4000FC010590615070400110D8F78095909556
:104D50008E0F9F1F0895FC0161507040019001105B
:104D6000D8F7809590958E0F9F1F08950F931F93EE
:104D7000CF93DF93182F092FEB018B8181FD09C0A1
:104D80001FEF0FEF812F902FDF91CF911F910F9188
:104D9000089582FF14C02E813F818C819D81281748
:104DA00039073CF4E881F981CF0101969983888322
:104DB00010838E819F8101969F838E83E3CFE88548
:104DC000F985812F0995892BA1F3DACFFA01AA275A
:104DD000283051F1203181F1E8946F936E7F6E5F3E
:104DE0007F4F8F4F9F4FAF4FB1E03ED0B4E03CD0EC
:104DF000670F781F891F9A1FA11D680F791F8A1FCF
:104E0000911DA11D6A0F711D811D911DA11D20D035
:104E100009F468943F912AE0269F11243019305DEF
:104E20003193DEF6CF010895462F4770405D4193E0
:104E3000B3E00FD0C9F7F6CF462F4F70405D4A332D
:104E400018F0495D31FD4052419302D0A9F7EACFF5
:104E5000B4E0A6959795879577956795BA95C9F724
:104E600000976105710508959B01AC010A2E069417
:104E70005795479537952795BA95C9F7620F731FD0
:0C4E8000841F951FA01D0895F894FFCF1B
:104E8C00FFFFFFFF00E10000000000008E0661162E
:104E9C004206D91538068F15350645153006FB1414
:104EAC00DD01350C7D067113270645131F061713FC
:104EBC001806EB12BC06F10AF60EDE0F080D830D78
:104ECC00641178057805780578057805FFFFFFFFF4
:104EDC00FFFFFFFFFF0000690880000060503030CA
:104EEC00506000701020404020107000009F0601A0
:104EFC0000A7060200B70600C18081000000000078
:104F0C0000008403F404C003B503E003C403D0031E
:104F1C0000000000A0063E06360620061C061806F9
:104F2C001406100683100E060C067E082C08EC07DF
:104F3C009B07227D00626164206172670076616C60
:104F4C00203C206C696D0076616C203E206C696D94
:104F5C00006E616E00696E66006F7666006D6F6440
:104F6C00756C6174696F6E007B2270726F746F6305
:104F7C006F6C223A2225752E25752E2575222C2232
:104F8C006D657461223A7B22646174615F7479701F
:104F9C0065223A222573222C2272737369223A25D8
:104FAC00647D2C2264617461223A7B226964223A0A
:104FBC00222573227D7D007B2272737369223A2530
:104FCC00642C2264617461223A7B226E6F64655F8B
:104FDC0062656570223A7B226964223A22256C78DC
:104FEC00222C227461675F72737369223A25642CD8
:104FFC0020226F66667365745F6D73223A256C644C
:10500C007D2C226E6F64655F746167223A7B227619
:10501C00657273696F6E223A312C227461675F6915
:10502C0064223A222573222C226572726F725F629F
:10503C00697473223A25647D7D7D007B22727373C3
:10504C0069223A25642C2264617461223A7B226EB7
:10505C006F64655F616C697665223A7B22696422B4
:10506C003A22256C78222C226669726D7761726502
:10507C00223A2225752E25752E2575222C22626149
:10508C0074746572795F6D76223A25752C2263658E
:10509C006C73697573223A25752C226176675F6390
:1050AC006361223A25647D7D7D00747261636B655A
:1050BC00720074656C656D65747279007B22707218
:1050CC006F746F636F6C223A2225752E25752E2511
:1050DC0075222C226D657461223A7B2264617461A5
:1050EC005F74797065223A222573222C22736F75B6
:1050FC00726365223A7B2274797065223A22257399
:10510C00222C226964223A222573227D2C2272736E
:10511C007369223A25647D2C2264617461223A7B86
:10512C00002C2274696D65223A256C752C22616302
:10513C0074223A256C752C227370656564223A25AD
:10514C00752C22616C746974756465223A25642C23
:10515C0022736F6C61725F6D61223A25752C22741B
:10516C00656D705F63223A25642C22747466662226
:10517C003A25757D7D007B2270726F746F636F6C46
:10518C00223A2225752E25752E2575222C226D6529
:10519C007461223A7B22646174615F747970652258
:1051AC003A22636F6465645F6964222C22727373A4
:1051BC0069223A25647D2C2264617461223A7B2237
:1051CC006964223A222573222C00227061796C6F5B
:1051DC006164223A0022006E756C6C006E6F64651F
:1051EC00006E6F64655F636F6465645F6964007B08
:1051FC002270726F746F636F6C223A2225752E25A4
:10520C00752E2575222C226D657461223A7B2264E1
:10521C006174615F74797065223A222573222C22A5
:10522C00736F75726365223A7B2274797065223ACA
:10523C00222573222C226964223A22256C78227D45
:10524C002C0022636F6C6C656374696F6E223A7B01
:10525C00226964223A256C752C22636F756E742258
:10526C003A25752C22696478223A25757D2C227298
:10527C00737369223A25647D2C0022646174612267
:10528C003A7B227265635F6174223A256C752C221D
:10529C006964223A222573222C2272737369223A92
:1052AC0025647D7D006E6F64655F6865616C7468F4
:1052BC00007B2270726F746F636F6C223A222575BB
:1052CC002E25752E2575222C226D657461223A7B54
:1052DC0022646174615F74797065223A22257322AD
:1052EC002C22736F75726365223A7B227479706518
:1052FC00223A222573222C226964223A22256C78C8
:10530C00227D2C2272737369223A25647D2C002233
:10531C0064617461223A7B2273656E745F617422DE
:10532C003A256C752C226677223A2225752E257526
:10533C002E2575222C2274656D705F63223A2564CC
:10534C002C226261745F76223A25752C22736F6C65
:10535C005F76223A25752C22736F6C5F6D61223A51
:10536C0025752C2273756D5F736F6C5F6D61223ABE
:10537C00256C752C00226669785F6174223A256C65
:10538C00752C226C6174223A256C642C226C6F6E25
:10539C00223A256C647D7D0074785F64626D0072C6
:1053AC00785F747970650072785F6173796E6300F1
:1053BC00727862770074785F6672657175656E637A
:1053CC007900707265736574006E6F6465320034B9
:1053DC0033332E32350035302E300031006E6F6491
:1053EC0065330066736B746167003433342E3000A0
:1053FC006F6F6B746167006E6F6465335F747800F8
:10540C0031370071617163003433352E30006D6FAC
:10541C006465006E6F64655F7632007461675F6609
:10542C00736B007461675F6F6F6B00526164696FBF
:10543C00204F6B210D0A00676D736B0076657273DC
:04544C00696F6E0016
:00000001FF
