:100000000C944C010C941F140C94F8130C94D11301
:100010000C94AA130C9474010C9474010C94831323
:100020000C9474010C9474010C94AA010C941302A6
:100030000C9474010C9474010C9474010C9474016C
:100040000C9474010C9474010C9474010C9474015C
:100050000C9474010C9474010C9474010C94391375
:100060000C9474010C9474010C9474010C9474013C
:100070000C9474010C9474010C9474010C9474012C
:100080000C9474010C9474010C9474010C9474011C
:100090000C9474010C9474010C9474010C9474010C
:1000A0000C9474010C9474010C947401FC11FF11F4
:1000B000EE11F211F6112012201220120312071273
:1000C0000B121112151220121B124E414E494E49AD
:1000D0005459494E46CDCCCC3D0AD7233C17B7D115
:1000E0003877CC2B329595E6241FB14F0A000020BB
:1000F000410000C84200401C4620BCBE4CCA1B0E3A
:100100005AAEC59D74080B000202020100090400EA
:100110000001020200000524001001052401010174
:10012000042402060524060001070581031000408F
:1001300009040100020A0000000705020240000055
:10014000070583024000000403090412010002EFC6
:100150000201409A230C8000010102030141646105
:100160006672756974004665617468657220333221
:100170007534007B226572726F72223A225261647A
:10018000696F20496E6974204661696C6564227DDF
:10019000002C2262617474657279223A002C226804
:1001A000646F70223A002C226C6F6E223A00226C2F
:1001B0006174223A00222C22726573223A7472759D
:1001C000657D007B226B6579223A2200222C227207
:1001D0006573223A66616C73652C22657272223AED
:1001E00022007B226B6579223A2200227D002E00BC
:1001F0002E007B226E616D65223A2253656E736F0D
:100200007253746174696F6E526164696F222C223B
:100210006669726D77617265223A22000000000003
:10022000240027002A002D003000000000002500D7
:1002300028002B002E0031000404040404030405EC
:100240000202020204030202020206060606060673
:100250000404020202040404080201104080401059
:1002600020408040800802040180402010020110DC
:100270008010204040200000000200090F00000311
:100280000401000C0000000000000000000000005D
:10029000000000000000351D11241FBECFEFDAE082
:1002A000DEBFCDBF27E0A4E3B6E001C01D92AE3CA7
:1002B000B207E1F716E0A0E0B1E0ECE1FAE402C039
:1002C00005900D92A433B107D9F711E0CCE4D1E049
:1002D00004C02197FE010E94FA21CB34D107C9F74F
:1002E0000E94091A0C940C250C9400000E941B22F9
:1002F0000F931F93CF93DF931F92CDB7DEB782E0AA
:10030000898342E450E065E071E080E80E94AA1130
:100310000E94B819DC0112960D911C9113970115DA
:10032000110569F0D801ED91FC910280F381E02D77
:10033000BE016F5F7F4FC801099597FF07C0898194
:100340000F90DF91CF911F910F910895F8010085D3
:100350001185E5CF1F920F920FB60F9211248F9344
:100360009F938091E1009091E100937F9093E10051
:1003700083FF0FC01092E90091E09093EB00109280
:10038000EC0092E39093ED001092140798E09093A4
:10039000F00082FF1CC093E09093E9009091F2007E
:1003A000992319F09AE39093E800909138069923E5
:1003B00029F0909138069150909338069091130748
:1003C000992329F09091130791509093130784FF7C
:1003D00010C08091E2008E7E81608093E200809167
:1003E000E1008F7E8093E100809139068E7E8061EE
:1003F00011C080FF11C08091E2008E7E80618093E9
:10040000E2008091E1008E7E8093E10080913906C8
:100410008E7E8160809339069F918F910F900FBEE1
:100420000F901F9018951F920F920FB60F921124E4
:10043000CF92DF92EF92FF920F931F932F933F93F0
:100440004F935F936F937F938F939F93AF93BF93DC
:10045000EF93FF93CF93DF93CDB7DEB76C97DEBFFB
:10046000CDBF1092E9008091E80083FFFFC1FE013B
:100470007596DE2ECF2E88E08E0F8E1729F0909184
:10048000F10090833196F9CF84E68093130782EFD1
:100490008093E8008D8987FF05C09091E80090FF68
:1004A000FCCF03C09EEF9093E800982F907609F060
:1004B000C5C09E892F89188D91110CC0803829F4F0
:1004C00080913E068093F10002C01092F1001092DC
:1004D000F1004FC1422F50E0512B913051F4811166
:1004E00048C14130510509F044C180913E068D7FDD
:1004F0000BC0933061F481113CC14130510509F0CA
:1005000038C180913E06826080933E0632C19530AC
:1005100041F48091E80080FFFCCF20682093E30045
:1005200028C1963009F05EC0EB8CFC8C1092E9007B
:100530001092370610923606123091F51092350659
:10054000109234060E94780199E0BE016F5F7F4FE0
:10055000DB01E92F1D92EA95E9F799831A8391E06F
:100560009E8390EA98879AEF99872091360630917A
:100570003706275F3F4F3C832B838D831092E90022
:100580001092370610923606F0923506E092340645
:1005900049E050E080E00E94AA110E947801E9C081
:1005A000F0923506E09234060E94B819DC011296EA
:1005B000ED90FC901397E114F10409F4C7C0D70142
:1005C000ED91FC910480F581E02D6D2D7C2DC7010E
:1005D0000995009719F00CF0CCC0CFC0F701E0846A
:1005E000F184E9CF973009F4C8C0983021F481E054
:1005F0008093F100BEC0993009F0BBC0837009F050
:10060000BCC0EDE4F1E081E021E036E39081992384
:1006100061F08093E9002093EB0091919093EC00BE
:100620003093ED008F5F873089F78EE78093EA0083
:100630001092EA008F89809314079BC08B8D9C8D4C
:100640001092E90010923706109236069093350604
:1006500080933406898D81115FC08E899D89913A7E
:1006600059F4813209F089C047E050E064E071E05C
:1006700080E00E94AA117DC0913209F07EC08332D1
:1006800089F4888D90E0982F88272F89822BA0E00D
:10069000B0E08093000190930101A0930201B09318
:1006A000030167C08032B1F48091E80082FFFCCF83
:1006B000E4E0F1E087E08E0F8E1729F09091F100D1
:1006C00090833196F9CF84E6809313078BEF809364
:1006D000E80006C0823209F04CC08F8980930B017C
:1006E00080913D06882319F0EEEFFAE002C0E0E0C9
:1006F000F8E08091040190910501A0910601B0916C
:100700000701803B9440A105B10509F07AC08091B2
:100710000B0180FF92C075C00E94B819DC011296CF
:100720000D911C9113970115110539F1D801ED9127
:10073000FC910190F081E02D6D2D7C2DC801099573
:10074000811117C0F80100851185EDCF113009F432
:100750004EC0133091F48F89882309F445C082304C
:1007600081F440E86CE086E691E00E94CC19882391
:1007700021F08EEF8093E80079C081E28093EB0056
:1007800075C0813029F440E868E08DE591E0EDCF57
:10079000833099F70E94B819DC011296ED90FC9015
:1007A00013978E010F5F1F4F6801E114F10479F078
:1007B000D701ED91FC910680F781E02DB801C701CA
:1007C0000995080F111DF701E084F184EECFD801DF
:1007D0001C92F60101900020E9F73197BF016C19D6
:1007E0007D0940E0C601C1CF67E471E002C06BE45F
:1007F00071E06115710509F2FB01449150E080E858
:1008000038CF0FB6F894A8958091600088618093E6
:100810006000109260000FBEA895EE3F2AE0F2073C
:1008200039F08091FE0A9091FF0A91838083A1CFD5
:100830001092FF0A1092FE0A9CCFEE3F8AE0F80762
:1008400031F0808191819093FF0A8093FE0A87E7BF
:1008500097E7918380839BE088E10FB6F894A89591
:10086000809360000FBE9093600083CF6C960FB6AC
:10087000F894DEBF0FBECDBFDF91CF91FF91EF9116
:10088000BF91AF919F918F917F916F915F914F91A8
:100890003F912F911F910F91FF90EF90DF90CF909C
:1008A0000F900FBE0F901F9018958230910501F1A7
:1008B0002CF4009751F0019741F008958430910590
:1008C000C9F154F1059799F1089589ED91E00E94DD
:1008D0005C0E80EE91E00E94D80D83EE91E00E94C4
:1008E0008F0D85EE91E00E947F0B85EE91E012C0A6
:1008F00087EE91E00E945C0E80EE91E00E94D80DA0
:1009000083EE91E00E948F0D85EE91E00E947F0BB7
:1009100083EE91E00C94560B87EE91E00E945C0E02
:1009200080EE91E00E94D80D85EE91E0EBCF8DEE48
:1009300091E002C087EE91E00E941A0E83EF91E0F1
:100940000E94310B83EE91E00C948F0DFF920F9378
:100950001F93CF93DF93CDB7DEB760970FB6F894B0
:10096000DEBF0FBECDBFF42E8E010F5F1F4F30E1F3
:10097000F80111923A95E9F7462F50E0009739F0C7
:100980004930510520F4BC01C8010E9446141F9350
:100990000F938F2D0F2C000C990B9F93FF928BE1DF
:1009A00093E09F938F931F921F921F921F921F920B
:1009B00081E08F9386EF91E09F938F930E946E1456
:1009C0000FB6F894DEBF0FBECDBF60960FB6F89499
:1009D000DEBF0FBECDBFDF91CF911F910F91FF9072
:1009E00008954F925F926F927F928F929F92AF92F3
:1009F000BF92CF92DF92FF920F931F93CF93DF931B
:100A0000CDB7DEB760970FB6F894DEBF0FBECDBF8F
:100A1000623208F4BDC0FC0124812111B9C0F42E5A
:100A20008C0160E20E94E514F80121A130E0322F30
:100A3000222740A1242B8217930709F0A9C0CE01D9
:100A400001966C0180E1F60111928A95E9F7011592
:100A5000110531F044E050E0B801C6010E9446148F
:100A6000F801638D748D80E090E00E94391F20E0D2
:100A700030E048EC52E40E9419214B015C01F8017E
:100A800086899789BC0180E090E00E94391F20E0B0
:100A900030E048EC52E40E9419212B013C018F2DDB
:100AA0000F2C000C990B9F93FF92DF92CF9285E45D
:100AB00092E09F938F938DE492E09F938F931F9288
:100AC0001F921F921F921F9281E08F9387E592E001
:100AD0009F938F930E9417188EEA91E00E94DA1775
:100AE000F801628573858485958546E00E949A1891
:100AF00086EA91E00E94DA17F80166857785808999
:100B0000918946E00E949A188DE991E00E94DA17D7
:100B100042E0C301B2010E949A1881E991E00E946B
:100B2000DA1742E0C501B4010E949A18F801878DD6
:100B30001F928F93868D282F082E000C330B3F9326
:100B40008F93858D1F928F93828D8F93818D8F933D
:100B5000808D1F928F9385898F9384898F9383894A
:100B60008F9382898F9381858F9380858F938781DF
:100B70008F9386818F938CEB92E09F938F930E944B
:100B80006E140FB6F894DEBF0FBECDBF81E001C07A
:100B900080E060960FB6F894DEBF0FBECDBFDF9148
:100BA000CF911F910F91FF90DF90CF90BF90AF90AA
:100BB0009F908F907F906F905F904F900895CF920D
:100BC000DF92EF92FF920F931F93CF93DF93CDB7F6
:100BD000DEB7C65BD1090FB6F894DEBF0FBECDBF3E
:100BE0008C01D42EFC018481823009F0A6C069E119
:100BF000C8010E94E514F801228D30E0322F22272F
:100C0000418D242B8217930709F056C150E8C52E59
:100C10009E012F5F3F4F7901F9012C2D11922A95EA
:100C2000E9F7F80183818F9382818F9381818F937C
:100C300080818F9381E193E09F938F9386E193E08E
:100C40009F938F931F921F921F921F921F9281E07A
:100C50008F9384E293E09F938F931F92CF92FF92A2
:100C6000EF920E943222C7010E94C217F7012C2D79
:100C700011922A95E9F78D2D0D2C000C990B9F935D
:100C8000DF92F80185858F9384858F9383858F9379
:100C900082858F9381858F9380858F9387818F93B2
:100CA00086818F9387E793E09F938F931F92CF92D4
:100CB000FF92EF920E9432220FB6F894DEBF0FBE71
:100CC000CDBFC7010E94C2176E013BEAC30ED11C03
:100CD0008CE0F60111928A95E9F7F801478950E016
:100CE000B8016E5E7F4F31F04730510518F4C601F0
:100CF0000E94461480E8F701282F11922A95E9F7FF
:100D0000F801908D292F092E000C330B3F939F93F0
:100D1000DF92CF9291899F9390899F9397859F931C
:100D200096859F932FEA33E03F932F931F928F93E3
:100D3000FF92EF920E943222B5C0833009F0BCC00E
:100D400064E2C8010E94E514F80125A130E0322FC9
:100D5000222744A1242B8217930709F0ADC080E815
:100D60009E012F5F3F4F7901F901282F11922A959B
:100D7000E9F72D2D0D2C000C330B3F93DF92F8017A
:100D800093819F9392819F9391819F9390819F9351
:100D900021E133E03F932F932AED33E03F932F93EC
:100DA0001F921F921F921F921F9291E09F9326EE17
:100DB00033E03F932F931F928F93FF92EF920E9405
:100DC0003222C7010E94C2178AEAF701282F119226
:100DD0002A95E9F7F80197899F9396899F939589BA
:100DE0009F9394899F9393899F9392899F939189CD
:100DF0009F9390899F9397859F9396859F939585C1
:100E0000292F092E000C330B3F939F9394851F923B
:100E10009F9393851F929F9392851F929F93918595
:100E20009F9390859F9397819F9396819F9324E4AE
:100E300034E03F932F931F928F93FF92EF920E9483
:100E400032220FB6F894DEBF0FBECDBFC7010E949D
:100E5000C21780E5F701282F11922A95E9F7F801CA
:100E600093A19F9392A19F9391A19F9390A19F93F0
:100E7000978D9F93968D9F93958D9F93948D9F9320
:100E8000938D9F93928D9F93918D9F93908D9F9320
:100E90002AEA34E03F932F931F928F93FF92EF92B1
:100EA0000E943222C7010E9409180FB6F894DEBFD3
:100EB0000FBECDBF81E001C080E0CA54DF4F0FB646
:100EC000F894DEBF0FBECDBFDF91CF911F910F9180
:100ED000FF90EF90DF90CF9008957F928F929F9236
:100EE000AF92BF92CF92DF92EF92FF920F931F9338
:100EF000CF93DF93CDB7DEB7EB970FB6F894DEBF95
:100F00000FBECDBF7C01142FAE014F5F5F4F87E155
:100F1000DA011D928A95E9F76E3210F480E00DC176
:100F2000FA0190E0D7012C9190FD06C0B0E12B9F13
:100F300090011124208304C02F708081282B2193DD
:100F40006FEFE61AF60A9F5F9E3261F765E1CA010C
:100F50000E94E5142E8930E0322F22274F89242B5E
:100F600082179307D9F62D8169817A818B819C81C3
:100F70000E940022062FF72EE82ED92E211170C0D4
:100F800080E15E0178E2A70EB11CD501E82F1D9229
:100F9000EA95E9F718AE19AE1AAE1BAE9E812F8105
:100FA0002E839F83E3E5F1E0DE01589601900D92D8
:100FB0008A95E1F7FE01F89680E0BF01982F96959B
:100FC000A6E0B0E0AC0FBD1FA90FB11D2C9180FDB4
:100FD00002C022952F702F70A8E1B0E0AC0FBD1FAA
:100FE000A20FB11D9C91292B21938F5F843031F783
:100FF00044E050E0C5010E9446146A857B858C85DB
:101000009D850E9400222F851F922F93BF92AF9241
:101010000E94391F20E030E04AE75EE30E949A1FF9
:101020000E948B219F938F937F936F938E858695DC
:101030008658282F082E000C330B3F938F93DF9296
:10104000EF92FF920F93812F012E000C990B9F932B
:101050001F938DEC94E09F938F930E946E1467C052
:10106000213009F05BCF9F80492D64E087E00E942A
:10107000B614C82E4E8160E083E00E94B614B82EEC
:101080007884472D62E087E00E94B614A82E492D8F
:1010900060E083E00E94B614982E498560E087E006
:1010A0000E94B614882E472D60E081E00E94B6149D
:1010B000482F9F8596959E57292F092E000C330B9C
:1010C0003F939F932A8530E0322F22278B85D901C9
:1010D000A82BCD016AE070E00E94C421062E000C0E
:1010E000770B7F936F938D858F938C858F93282DAE
:1010F00030E0C901942B9F938F9330E039293F93BF
:10110000AF922C2D30E0C9019B299F938F93DF92E2
:10111000EF92FF920F93812F012E000C990B9F935A
:101120001F9381E595E09F938F930E946E140FB6F5
:10113000F894DEBF0FBECDBF81E0EB960FB6F894FA
:10114000DEBF0FBECDBFDF91CF911F910F91FF90FA
:10115000EF90DF90CF90BF90AF909F908F907F9057
:1011600008952F923F925F926F927F928F929F92FB
:10117000AF92BF92CF92DF92EF92FF920F931F93A5
:10118000CF93DF931F92CDB7DEB7642E653008F49E
:101190006BC0DC016C0124E0C20ED11CFC0120E01C
:1011A0003191311101C02F5FEC15FD05C9F72430D5
:1011B00009F45AC0712C5D90E52DF0E0AF01559512
:1011C0004795BF0175956795759567958F0123E0E4
:1011D000159507952A95E1F77B01E426F526E0268B
:1011E000F1269F01F4E035952795FA95E1F72E2534
:1011F0003F25217050FA222420F8312C60277127D6
:10120000617077276225732555FA882480F8912C20
:101210006815790509F0226040275127417055274C
:1012200042255325E6FBAA24A0F8B12C4A155B05FC
:1012300009F02460720EAC15BD0509F0BCCF711029
:1012400013C08C0164E070E069820E94CE14F80142
:101250009481462D981302C065E001C064E0C80186
:101260000E94A60481E001C080E00F90DF91CF9141
:101270001F910F91FF90EF90DF90CF90BF90AF90B4
:101280009F908F907F906F905F903F902F900895E8
:10129000EF92FF920F931F93CF93DF931F92CDB7DF
:1012A000DEB77C01062FFC01138163E070E0498307
:1012B0000E94CE1449810430B0F0F70197012C5FF1
:1012C0003F4F90E05191511101C09F5FE217F3072A
:1012D000C9F7943041F0181306C064E0C7010E94BA
:1012E000A60481E001C080E00F90DF91CF911F91B3
:1012F0000F91FF90EF9008958091FC06811146C0F8
:1013000085E197E09093A6068093A50685E5E7EA38
:10131000F6E0DF011D928A95E9F78FE0E3E6F1E060
:10132000A7EAB6E001900D928A95E1F784E4E6EB36
:10133000F6E0DF011D928A95E9F781E08093F706D8
:1013400040E050E069ED73E44093AB065093AC0687
:101350006093AD067093AE0640E050E068EC71E437
:101360004093A7065093A8066093A9067093AA0617
:101370001092B5061092B4068093FA0625EA36E07C
:1013800030930507209304078093FC0685EA96E0D6
:101390000895982F8FEB890F8A31B0F08FE9890F6C
:1013A0008A3110F489EB05C080ED890F8A3018F47A
:1013B00084E0890F08959B3221F09F3221F08FEF56
:1013C00008958EE308958FE308950F931F93CF93AD
:1013D000DF938C01EB0182EE91E00E94DA17C801E5
:1013E0000E94C2178CEC91E00E94DA17CE010E9495
:1013F000C21780EC95E0DF91CF911F910F910C9473
:1014000009186115710531F0FB012081222311F0CB
:1014100081E0089563EC75E00E94E50980E008959D
:10142000CF93DF93EC0183EC91E00E94DA17CE01B9
:101430000E94C21785EB91E0DF91CF910C94FB17CE
:10144000CF93DF93EC01BC0185E991E00E94010A92
:10145000882309F44BC06BEC75E0CE010E94292271
:10146000892B19F480E090E031C061ED75E0CE0188
:101470000E942922892B19F481E090E027C067EDB2
:1014800075E0CE010E942922892B19F482E090E0B8
:101490001DC06EED75E0CE010E942922892B19F442
:1014A00083E090E013C065EE75E0CE010E94292232
:1014B000892B19F484E090E009C06EEE75E0CE014E
:1014C0000E942922892B51F485E090E00E94550466
:1014D00085E991E0DF91CF910C94100A63EC75E0FF
:1014E00085E991E0DF91CF910C94E509DF91CF91EF
:1014F0000895CF93DF93EC01BC0180E991E00E9455
:10150000010A882369F163EF75E0CE010E94292268
:10151000892B19F480E090E013C06BEF75E0CE01E9
:101520000E942922892B19F482E090E009C063E02F
:1015300076E0CE010E942922892B51F483E090E0CD
:101540000E94550480E991E0DF91CF910C94100A3C
:1015500063EC75E080E991E0DF91CF910C94E509AF
:10156000DF91CF910895FF920F931F93CF93DF9355
:101570008C01D62FF42EC0E090913A06C917A8F43A
:1015800090913B0680913C06E92FF82FEC0FF11D5E
:10159000EC0FF11D0190F081E02D4F2D6D2FC80152
:1015A0000995811103C0CF5FE7CF80E0DF91CF9134
:1015B0001F910F91FF900895EDEBF7E088E0808395
:1015C00084E0818387E082830C943A1664171CF4CC
:1015D0006BE076E004C0261734F465E176E00E9403
:1015E000E50980E008950E94100A81E008958F9235
:1015F0009F92AF92BF92CF92DF92EF92FF920F93A2
:101600001F93CF93DF93EC014A015B01A90198017D
:10161000C501B4010E94341F87FF03C06BE076E070
:101620000AC0A7019601C501B4010E94BA2118168B
:101630003CF465E176E0CE010E94E50980E004C05B
:10164000CE010E94100A81E0DF91CF911F910F918E
:10165000FF90EF90DF90CF90BF90AF909F908F90D2
:101660000895CF93DF93EC01BC018AEC91E00E94D6
:10167000010A8823C1F0CE010E94901DC82F21E1EC
:101680004EEF682F8AEC91E00E94E60A882359F019
:10169000E0910407F0910507309729F0C687EB5ACF
:1016A000FF4F81E08083DF91CF910895CF93DF9347
:1016B000EC01BC0182EC91E00E94010A8823E1F078
:1016C000CE010E94901DC82F21E040E0682F82ECDF
:1016D00091E00E94E60A882379F020910407309176
:1016E00005072115310541F0F901ED5AFF4F8C2F07
:1016F000CC0F990B91838083DF91CF910895CF9385
:10170000DF93EC01BC0189EB91E00E94010A882380
:10171000E1F0CE010E94901DC82F21E040E0682F2B
:1017200089EB91E00E94E60A882379F02091040772
:10173000309105072115310541F0F901EE5AFF4FAF
:1017400091E0C13009F090E09083DF91CF9108954E
:101750002F923F924F925F926F927F928F929F92C1
:10176000AF92BF92CF92DF92EF92FF920F931F93AF
:10177000CF93DF93CDB7DEB7C458D1090FB6F89435
:10178000DEBF0FBECDBF6C01BC018BEE95E00E94A9
:10179000010A882309F484C1F60101900020E9F7C9
:1017A0003197EC19E43018F46BE076E004C0EB35C7
:1017B000F8F065E176E08BEE95E0CC57DF4F0FB6A1
:1017C000F894DEBF0FBECDBFDF91CF911F910F9177
:1017D000FF90EF90DF90CF90BF90AF909F908F9051
:1017E0007F906F905F904F903F902F900C94E50901
:1017F0008BEE95E00E94100ACE0101965C0180E814
:10180000F50111928A95E9F7860146017401FFEF0F
:101810008F1A9F0AF70180810E94C9098034B0F3B2
:10182000F701EC19FD09CF010F2E000CAA0BBB0B21
:101830009C01AD0162E056954795379527956A95CD
:10184000D1F7A3E0B0E00E945B209F012370332713
:101850006901330FEE08FF08F2E0CF16D104E1046E
:10186000F10471F023E0C216D104E104F10481F423
:101870002B013C01E2E04E0E511C611C711C0AC0A0
:101880002B013C014FEF441A540A640A740A02C047
:101890002B013C0142E050E060E070E0750168011E
:1018A0000C5F1F4F441555056605770508F097C076
:1018B000F80134978081CF57DF4F4883C158D0401B
:1018C000CE57DF4F5883C258D040CD57DF4F688383
:1018D000C358D040CC57DF4F7883C458D0400E94C3
:1018E000C909982EF801339780810E94C909C82E32
:1018F000D12C960144E0359527954A95E1F7F4E01F
:101900009F9EC0011124822BF7018083F80132973A
:1019100080810E94C909882E912CCF57DF4F4881C2
:10192000C158D040CE57DF4F5881C258D040CD5714
:10193000DF4F6881C358D040CC57DF4F7881C458FF
:10194000D0401501240E351EF1013197C401959543
:10195000879595958795B4E0CC0CDD1CBA95E1F799
:10196000C82AC082F80131978081CF57DF4F488362
:10197000C158D040CE57DF4F5883C258D040CD57C2
:10198000DF4F6883C358D040CC57DF4F7883C458AB
:10199000D0400E94C90996E0880C991C9A95E1F7FD
:1019A0008829F1018083F3E0EF0EF11CCF57DF4F60
:1019B0004881C158D040CE57DF4F5881C258D040DF
:1019C000CD57DF4F6881C358D040CC57DF4F788167
:1019D000C458D0404D5F5F4F6F4F7F4F60CFC30102
:1019E000B20123E030E040E050E00E94D8216130B5
:1019F00071058105910561F16230710581059105DF
:101A0000C9F5F60180810E94C909982EF6018181ED
:101A10000E94C909082F10E0980184E035952795A8
:101A20008A95E1F7F4E09F9EC0011124822BF70113
:101A30008083F60182810E94C9098695869594E08B
:101A4000000F111F9A95E1F7082BF701018312C0CF
:101A5000F60180810E94C909182FF60181810E9438
:101A6000C90982958F70F4E01F9F90011124282BE3
:101A7000F7012083442D00910407109105070115FB
:101A8000110571F0413460F450E0B501C80142968F
:101A90000E942022F801418AEA5AFF4F81E08083A8
:101AA000CC57DF4F0FB6F894DEBF0FBECDBFDF912E
:101AB000CF911F910F91FF90EF90DF90CF90BF904B
:101AC000AF909F908F907F906F905F904F903F90DE
:101AD0002F90089582EF91E00E94DA174AE062E0C9
:101AE00070E080E090E00E94591880EF91E00E9441
:101AF000DA174AE064E070E080E090E00E94591854
:101B00008EEE91E00E94DA174AE061E070E080E03A
:101B100090E00E9459188BEE91E00C94FB17CF9245
:101B2000DF92EF92FF920F931F93CF93DF936C019D
:101B3000BC018EEA91E00E94010A882381F18EEABD
:101B400091E00E94100A009104071091050792E7A6
:101B5000E92E91E0F92EC0E0D0E0B601F7018281D4
:101B600093810E942922892B99F40115110581F096
:101B7000CC0FDD1FCC0FDD1FCE58DE4F8881998141
:101B8000F801908B8787EB5AFF4F81E0808307C075
:101B90002196F4E0EF0EF11CC330D105F1F6DF9190
:101BA000CF911F910F91FF90EF90DF90CF9008950C
:101BB0008F929F92AF92BF92CF92DF92EF92FF925D
:101BC0000F931F935C01BC0189EA91E00E94010A16
:101BD000882329F1C5010E948C1D4B015C01C12C99
:101BE000D12C8AEFE82E83E4F82E06E616E626E2EC
:101BF00030E4B501A40189EA91E00E94F70A882344
:101C000071F0E0910407F0910507309741F082826E
:101C10009382A482B582EB5AFF4F81E080831F91AB
:101C20000F91FF90EF90DF90CF90BF90AF909F907B
:101C30008F9008958F929F92AF92BF92CF92DF9232
:101C4000EF92FF920F931F935C01BC018CE991E02E
:101C50000E94010A882329F1C5010E948C1D4B01B5
:101C60005C01C12CD12CEE24EA9483E4F82E00E030
:101C700010E024ED33E4B501A4018CE991E00E9469
:101C8000F70A882371F0E0910407F0910507309777
:101C900041F082869386A486B586EB5AFF4F81E099
:101CA00080831F910F91FF90EF90DF90CF90BF90B6
:101CB000AF909F908F9008958F929F92AF92BF9216
:101CC000CF92DF92EF92FF920F931F935C01BC01C2
:101CD0008FE991E00E94010A882329F1C5010E9441
:101CE0008C1D4B015C01C12CD12CEE24EA9483E4C1
:101CF000F82E00E010E024ED33E4B501A4018FE9F3
:101D000091E00E94F70A882371F0E0910407F091B6
:101D10000507309741F086829782A086B186EB5AFC
:101D2000FF4F81E080831F910F91FF90EF90DF9034
:101D3000CF90BF90AF909F908F900895FC01248129
:101D400035812430310541F0E05BFF4F1182108274
:101D500064E070E00C941A160895CF93DF93FC01B1
:101D6000248135812031310511F1EC01E05BFF4F19
:101D700081E090E0918380834FE961E1CE010E9490
:101D8000501545E56AE5CE010E94501540E76CE527
:101D9000CE010E94501540E465E2CE010E9450152C
:101DA00060E170E0CE01DF91CF910C941A16DF91C3
:101DB000CF910895CF92DF92EF92FF92CF93DF936E
:101DC000EC01CB01BA0120E034E244E759E40E947F
:101DD0009A1F20E034E244E752E40E9419210E9455
:101DE0008B216B017C01A7016627772767E0CE0175
:101DF0000E94501577276F2D5E2D4D2D68E0CE0186
:101E00000E9450154C2D69E0CE01DF91CF91FF90DB
:101E1000EF90DF90CF900C945015FF920F931F938B
:101E2000CF93DF9300D01F92CDB7DEB78C01DC01DA
:101E30001296ED91FC911397F18061E08F2D0E9435
:101E4000341260E08F2D0E94D1116AE070E080E0D2
:101E500090E00E94701261E08F2D0E94D1116AE023
:101E600070E080E090E00E94701260E08F2D0E9490
:101E7000D1116AE070E080E090E00E947012FFB63D
:101E8000F89480910707811127C0E9E4F2E084917A
:101E9000E8E6F2E09491E82FF0E0EE0FFF1FE45E39
:101EA000FD4FA591B491EC91E92321F461E081E12A
:101EB0000E94D11161E081E10E9434128CB58061F1
:101EC0008CBD8CB580648CBD61E08FE00E943412C3
:101ED00061E080E10E943412809107078F5F809358
:101EE0000707FFBED8011296ED91FC911397F08081
:101EF00061E08F2D0E94341261E08F2D0E94D1117C
:101F0000D8011296ED91FC9113978281882309F4F0
:101F100042C0813009F441C0823009F440C08330AE
:101F200009F43FC0873061F53EC0933008F469C0C2
:101F3000933009F069C088E030910807832B8093C3
:101F4000080780910907811103C081E08093090788
:101F50002FBFE92F092E000CFF0BEE0FFF1FEE5BCA
:101F6000FE4F2CEA35E1318320839230A9F140F510
:101F7000913059F180916900836080936900E89AFB
:101F800060E1C8010E948715882319F08F3F09F08E
:101F900043C080E0A0C092E007C093E005C091E09C
:101FA00003C090E001C094E060E09B830E94341283
:101FB0002FB7F8949B81923009F0B7CF84E0BCCF63
:101FC000933089F09430B1F0D5CF809169008C6066
:101FD00080936900E99AD4CF8091690080638093EF
:101FE0006900EA9ACDCF80916900806C8093690086
:101FF000EB9AC6CF80916A00806380936A00EE9A64
:10200000BFCF913039F004C0943011F480E494CF04
:1020100081E092CF82E090CFC8010E949E0E4FE8EF
:102020006CE3C8010E94501540E36FE6C8010E94AE
:10203000501540E050E069ED73E4C8010E94DA0EEB
:1020400040E062E0C8010E94501545E063E0C8012D
:102050000E94501540E064E0C8010E94501541E024
:1020600065E0C8010E9450154AE966E0C8010E9477
:1020700050154CEE69E1C8010E9450154CEE6AE122
:10208000C8010E94501540E067E3C8010E94501546
:1020900040E06CE2C8010E94501542E06DE2C801C8
:1020A0000E94501583ED898381E98A836EE2C8011D
:1020B0000E948715F82E22E0AE014F5F5F4F6FE25E
:1020C000C8010E9407154F2D477C48686EE2C80181
:1020D0000E94501581E00F900F900F90DF91CF91EB
:1020E0001F910F91FF90089580910907882361F057
:1020F0009FB7F8942091090780910607213019F4C1
:102100008DBB9FBF08958FBF08958EBD00000DB495
:1021100007FEFDCF8EB5089520910907222399F07F
:102120004FB7F89420910907213059F42DB320932B
:1021300006073DB320910807209523232DBB4FBFF1
:1021400002C0409306078CBD9DBD0895CF92DF92DB
:10215000EF92FF920F931F93CF93DF936C017A015D
:102160008B01C0E0D0E0CE15DF0589F0D8016D917C
:102170008D01D601ED91FC910190F081E02DC60119
:102180000995892B11F47E0102C02196ECCFC7017D
:10219000DF91CF911F910F91FF90EF90DF90CF9043
:1021A0000895CF93DF931F92CDB7DEB76983DC012B
:1021B000ED91FC910280F381E02D41E050E0BE0101
:1021C0006F5F7F4F09950F90DF91CF91089583E066
:1021D0008093E9008091F200882319F08AE38093CC
:1021E000E8000895FC018485958597FD0BC09FB795
:1021F000F89482E08093E9008091F2009FBF90E024
:10220000019608959FB7F89482E08093E900809149
:10221000F2009FBF90E00895089580E090E0089557
:102220003FB7F89480910F0790911007A091110784
:10223000B091120726B5A89B05C02F3F19F0019653
:10224000A11DB11D3FBFBA2FA92F982F8827820F3C
:10225000911DA11DB11DBC01CD0143E0660F771F8B
:10226000881F991F4A95D1F7089508950E94A719CC
:1022700090E00895CF93DF931F92CDB7DEB7FC01B6
:102280008485958597FD05C02FEF3FEF358724871F
:102290000BC0CE0101960E947E19019719F4898125
:1022A00090E002C08FEF9FEF0F90DF91CF910895E4
:1022B0000F931F93CF93DF931F92CDB7DEB78C019F
:1022C000FC018485958597FF0EC0CE0101960E9482
:1022D0007E19019719F4298130E002C02FEF3FEFFA
:1022E000F80135872487F801848595850F90DF9163
:1022F000CF911F910F910895409136065091370666
:10230000209134063091350642175307B4F490916A
:10231000E8009570E1F39091E80092FD19C0809378
:10232000F100809136069091370601968F739927B8
:10233000892B19F48EEF8093E800809136069091F6
:1023400037060196909337068093360681E008950C
:1023500080E00895DF92EF92FF920F931F93CF9347
:10236000DF93D82E8A017B01E40EF51EEB01CE151A
:10237000DF0571F0D7FE03C0FE01849101C08881A2
:102380000E947C1121968111F2CF8FEF9FEF01C047
:10239000C801DF91CF911F910F91FF90EF90DF90D7
:1023A0000895362F90E0FC01EA58FD4F4491FC015E
:1023B000E95AFD4F2491FC01E85CFD4F849188238C
:1023C00009F451C04423E1F150E0FA013197EF30B4
:1023D000F105B0F5EA5AFF4F0C94FA219091800074
:1023E0009F7707C0909180009F7D03C090918000EF
:1023F000977F9093800024C094B59F7702C094B5D6
:102400009F7D94BD1DC0909190009F7707C09091D3
:1024100090009F7D03C090919000977F90939000D3
:102420000FC09091C0009F7703C09091C0009F7D26
:102430009093C00005C09091C200977F9093C20016
:10244000E82FF0E0EE0FFF1FE65DFD4FA591B49180
:102450008FB7F894EC91311103C020952E2301C061
:102460002E2B2C938FBF0895CF93DF9390E0FC0128
:10247000E95AFD4F2491FC01E85CFD4F84918823CB
:1024800061F190E0880F991FFC01E45EFD4FC5915A
:10249000D491FC01E65DFD4FA591B491611109C095
:1024A0009FB7F8948881209582238883EC912E230E
:1024B0000BC0623061F49FB7F8943881822F809509
:1024C00083238883EC912E2B2C939FBF06C08FB75C
:1024D000F894E8812E2B28838FBFDF91CF91089548
:1024E0008F929F92AF92BF92CF92DF92EF92FF9224
:1024F0006B017C010E9410114B015C01C114D104DD
:10250000E104F104F1F00E941011DC01CB01881903
:102510009909AA09BB09883E9340A105B10570F34A
:1025200021E0C21AD108E108F10888EE880E83E0A4
:10253000981EA11CB11CC114D104E104F10419F7C7
:10254000DDCFFF90EF90DF90CF90BF90AF909F9046
:102550008F9008958F929F92AF92BF92CF92DF9209
:10256000EF92FF920F931F93CF93DF935C016B0168
:102570007A0180910B01882309F459C080911407D6
:10258000882309F454C08091390680FF05C08091EA
:10259000E00082608093E000E70110E00AEF83E052
:1025A000882E9AE3992E2097D1F10E94A7198111C4
:1025B00009C00150E1F161E070E080E090E00E942C
:1025C0007012F1CF282F30E0C217D3070CF48C2FF4
:1025D0004FB7F8948092E9009091E80095FF1DC0F4
:1025E000282F30E0C21BD30BF601982F915020F01A
:1025F00081918093F100FACFC20ED31E112319F0FE
:102600009092E80009C08091E80085FD06C0909294
:10261000E80011E0209709F010E04FBFC4CF11117E
:10262000C4CF84E6809338061E141F0444F081E072
:1026300090E0F5019383828380E090E001C0C701C0
:10264000DF91CF911F910F91FF90EF90DF90CF908E
:10265000BF90AF909F908F9008952FB7F89460919E
:102660000B0770910C0780910D0790910E072FBFFB
:1026700008951F920F920FB60F9211242F933F933C
:102680008F939F93AF93BF9380910B0790910C070B
:10269000A0910D07B0910E0730910A0726E0230F95
:1026A0002D3720F40296A11DB11D05C029E8230F86
:1026B0000396A11DB11D20930A0780930B079093E9
:1026C0000C07A0930D07B0930E0780910F07909110
:1026D0001007A0911107B09112070196A11DB11D1D
:1026E00080930F0790931007A0931107B0931207E0
:1026F000BF91AF919F918F913F912F910F900FBEFE
:102700000F901F9018951F920F920FB60F921124E1
:102710002F933F934F935F936F937F938F939F93E9
:10272000AF93BF93EF93FF93E0914A01F0914B0178
:102730000995FF91EF91BF91AF919F918F917F91FB
:102740006F915F914F913F912F910F900FBE0F901E
:102750001F9018951F920F920FB60F9211242F936E
:102760003F934F935F936F937F938F939F93AF9319
:10277000BF93EF93FF93E0914801F09149010995D0
:10278000FF91EF91BF91AF919F918F917F916F9149
:102790005F914F913F912F910F900FBE0F901F901F
:1027A00018951F920F920FB60F9211242F933F93FB
:1027B0004F935F936F937F938F939F93AF93BF9349
:1027C000EF93FF93E0914601F09147010995FF9146
:1027D000EF91BF91AF919F918F917F916F915F9199
:1027E0004F913F912F910F900FBE0F901F90189512
:1027F0001F920F920FB60F9211242F933F934F9376
:102800005F936F937F938F939F93AF93BF93EF9358
:10281000FF93E0914401F09145010995FF91EF91FB
:10282000BF91AF919F918F917F916F915F914F91E8
:102830003F912F910F900FBE0F901F9018951F92F0
:102840000F920FB60F9211242F933F934F935F93E4
:102850006F937F938F939F93AF93BF93EF93FF9368
:10286000E0914201F09143010995FF91EF91BF91F1
:10287000AF919F918F917F916F915F914F913F9118
:102880002F910F900FBE0F901F901895CF93DF934D
:10289000DC011196FB01460F571FE417F507D1F035
:1028A0009191292F30E084E0359527958A95E1F7BD
:1028B0002A30310514F0295C01C0205DED0121971B
:1028C00028839F709A3010F0995C01C0905D9C93B2
:1028D0001296E3CF81E0DF91CF9108950F931F937C
:1028E000CF93DF93CDB7DEB7CF5FD1090FB6F894A2
:1028F000DEBF0FBECDBF9E012A5F3E4FF901419161
:1029000051919F018E010F5F1F4F8FEFF8011192C0
:102910008A95E9F76FEF70E0C8010E946222AC016E
:102920008F3F910541F038F0C150DF4F1882CF5FE3
:10293000D0404DEF50E0E0911507F091160702806E
:10294000F381E02DB80185E197E0099586E296E0F4
:102950000E940918C150DF4F0FB6F894DEBF0FBEBA
:10296000CDBFDF91CF911F910F910895962F20E059
:10297000E1E0F0E0891748F0DF01092E01C0AA0F5D
:102980000A94EAF72A2B9F5FF5CF4223842F90E029
:1029900002C0959587956A95E2F70895FC01680F46
:1029A000791F80E037E0E617F70771F091918927EA
:1029B00098E0282F220F87FF03C0822F832701C0B2
:1029C000822F9150B1F7EFCF0895FC014FEF5FEFE9
:1029D0006150D8F091919527292F22952F70922739
:1029E000292F30E0542F442742275327C901982F1D
:1029F00088279295907F48275927A5E0220F331FFB
:102A0000AA95E1F742275327E3CFCA010895CF9251
:102A1000DF92EF92FF920F931F93CF93DF9300D03B
:102A2000CDB7DEB77C01062F142FF894DC018D9111
:102A30009C9129835A830E948C10D7011296ED91A4
:102A4000FC91139760E080810E94D111802F8068F3
:102A50000E948510082FC12E5A81D52E2981120F70
:102A60001C1531F0F60181916F010E948510F8CF9D
:102A7000D7011296ED91FC91139761E080810E943D
:102A8000D1110E9474107894802F0F900F90DF91D5
:102A9000CF911F910F91FF90EF90DF90CF9008950D
:102AA000EF92FF921F93CF93DF931F92CDB7DEB7C4
:102AB0007C01162FF894DC018D919C9149830E9432
:102AC0008C10D7011296ED91FC91139760E08081F4
:102AD0000E94D111812F80680E948510182F498192
:102AE000842F0E948510D7011296ED91FC911397C7
:102AF00061E080810E94D1110E9474107894812F2E
:102B00000F90DF91CF911F91FF90EF9008951F9349
:102B1000CF93DF93EC01162FF894888199810E945E
:102B20008C10EA81FB8160E080810E94D111812FAD
:102B30000E94851080E00E948510182FEA81FB8199
:102B400061E080810E94D1110E9474107894812FDD
:102B5000DF91CF911F910895DF92EF92FF920F9333
:102B60001F93CF93DF93C0916507D091660720979D
:102B700009F458C068E2CE010E948715F82E8C81B6
:102B80009D818C309105D9F1409709F041C0F2FE4A
:102B900036C0CE010E949E0E68E3CE010E948715CA
:102BA000E82EF894888199810E948C10EA81FB813B
:102BB00060E080810E94D11180E00E9485108E012A
:102BC000095F1F4FDE2CD00ED01639F080E00E9436
:102BD0008510F80181938F01F7CFEA81FB8161E0D5
:102BE00080810E94D1110E9474107894FE01E35BF1
:102BF000FF4FE08282E090E0339691838083F3FE82
:102C000007C0CE010E949E0EFE01E15BFF4F1082C5
:102C1000CE01DF91CF911F910F91FF90EF90DF9048
:102C20000C949E0EDF91CF911F910F91FF90EF902A
:102C3000DF9008950F931F93CF93DF93EC01162F2E
:102C4000072F61E00E948715837E912F9C71482F8A
:102C5000492B61E0CE010E94501567E2CE010E942F
:102C6000871587FFFACF1C830D83DF91CF911F91CA
:102C70000F9108958F929F92AF92BF92CF92DF9261
:102C8000EF92FF920F931F93CF93DF938091690789
:102C900090916A07009711F4D0E066C10E940D0F71
:102CA000D82F8823C9F30E947C09FC01C280D380FD
:102CB000E480F58086809780A084B1842785308960
:102CC0008091690790916A072130310529F02230FF
:102CD000310521F040E003C048E001C041E062E07E
:102CE0000E9450150091690710916A0720E030E0BA
:102CF00048EC53E4C701B6010E94BA2118160CF43F
:102D0000F2C026E636EA46EA53E4C701B6010E945D
:102D1000BA2118160CF4E9C020E030E04AE753E489
:102D2000C701B6010E94BA2118160CF4E0C020E0D9
:102D300030E048E453E4C701B6010E94BA211816F6
:102D40000CF4D7C023E333EB46E253E4C701B601EA
:102D50000E94BA2118160CF4CEC020E030E04AEFF1
:102D600052E4C701B6010E94BA2118160CF4C5C07E
:102D700020E030E048EC52E4C701B6010E94BA21DD
:102D800018160CF4BCC02AE939E946EA52E4C70136
:102D9000B6010E94BA2118160CF4B3C020E030E04E
:102DA0004AE752E4C701B6010E94BA2118160CF492
:102DB000AAC020E030E048E452E4C701B6010E9416
:102DC000BA2118160CF4A1C02DEC3CEC46E252E4FA
:102DD000C701B6010E94BA2118160CF498C026E665
:102DE00036E64AEF51E4C701B6010E94BA2118162F
:102DF0000CF48FC020E030E048EC51E4C701B6018C
:102E00000E94BA2118160CF486C026E636E646EA79
:102E100051E4C701B6010E94BA2118160CF47DC016
:102E20002AE939E949E751E4C701B6010E94BA210C
:102E300018160CF474C020E030E048E451E4C701F7
:102E4000B6010E94BA2118160CF46BC026E636E6CD
:102E500046E251E4C701B6010E94BA2118160CF4EB
:102E600062C02AE939E949EF50E4C701B6010E947E
:102E7000BA2118160CF459C02AE939E949EC50E492
:102E8000C701B6010E94BA2118160CF450C026E6FC
:102E900036E646EA50E4C701B6010E94BA21181688
:102EA0000CF447C02AE939E949E750E4C701B60103
:102EB0000E94BA2118160CF43EC026E636E646E417
:102EC00050E4C701B6010E94BA211816B4F126E6F3
:102ED00036E646E250E4C701B6010E94BA21181650
:102EE00074F197E12DC090E02BC098E029C090E1EB
:102EF00027C091E025C099E023C091E121C092E074
:102F00001FC09AE01DC092E11BC093E019C09BE076
:102F100017C093E115C094E013C09CE011C094E188
:102F20000FC095E00DC09DE00BC095E109C096E093
:102F300007C09EE005C096E103C097E001C09FE096
:102F4000C92FC06E4C2F69E1C8010E9450154C2F4B
:102F50006AE1C8010E945015B501A401809169077A
:102F600090916A070E94DA0E8D2FDF91CF911F9109
:102F70000F91FF90EF90DF90CF90BF90AF909F9018
:102F80008F900895BC01009791F0FC010190002002
:102F9000E9F73197AF01481B590BE0911507F09104
:102FA00016070280F381E02D85E197E0099480E027
:102FB00090E008950F931F93CF93DF938C01C0E0AF
:102FC000D0E0F801EC0FFD1F6491662371F0E091F1
:102FD0001507F09116070190F081E02D85E197E04B
:102FE0000995892B11F02196ECCFCE01DF91CF917D
:102FF0001F910F910895CF93DF930E94DA17EC0190
:1030000084E296E00E94C2178C0F9D1FDF91CF9142
:103010000895CF93DF930E94C217EC0184E296E0FB
:103020000E94C2178C0F9D1FDF91CF9108950F93BF
:103030001F93CF93DF93CDB7DEB7CF5FD1090FB624
:10304000F894DEBF0FBECDBF8E010F5F1F4F8FEF15
:10305000F80111928A95E9F79E01285F3E4F47E5F6
:1030600052E06FEF70E0C8010E946222AC018F3F16
:10307000910541F038F0C150DF4F1882CF5FD0404A
:103080004DEF50E0E0911507F09116070280F381B3
:10309000E02DB80185E197E00995C150DF4F0FB6EB
:1030A000F894DEBF0FBECDBFDF91CF911F910F917E
:1030B00008958F929F92AF92BF920F931F93CF93D9
:1030C000DF93CDB7DEB7A1970FB6F894DEBF0FBE82
:1030D000CDBF19A2423008F44AE08E010F5D1F4FA8
:1030E000842E912CA12CB12CA50194010E94D821F1
:1030F000E62FB901CA0101501109EA3014F4E05D6C
:1031000001C0E95CD801EC93232B242B252B61F71C
:10311000C8010E94C217A1960FB6F894DEBF0FBE79
:10312000CDBFDF91CF911F910F91BF90AF909F9036
:103130008F9008954F925F926F927F928F929F929D
:10314000AF92BF92CF92DF92EF92FF926B017C0120
:10315000B42E9B01AC010E94BF21882319F087E2A5
:1031600096E027C026013701E89477F82FEF3FEF6C
:103170004FE75FE7C301B2010E94BF2181110DC07B
:103180002FEF3FEF4FE75FE7C301B2010E94341F0B
:1031900018161CF48BE296E00CC02FEF3FEF4FE7C0
:1031A0005FE4C701B6010E94BA21181684F48FE2C9
:1031B00096E0FF90EF90DF90CF90BF90AF909F9000
:1031C0008F907F906F905F904F900C94C2172FEF6D
:1031D0003FEF4FE75FECC701B6010E94341F87FD48
:1031E000E6CF20E030E0A901C701B6010E94341FFC
:1031F00087FF11C0E0911507F09116070190F0814B
:10320000E02D6DE285E197E009954C01F7FAF09425
:10321000F7F8F09402C0812C912CA12C60E070E0B2
:1032200080E09FE3AB1441F020E030E040E251E465
:103230000E941921A394F6CF9B01AC01C701B601EE
:103240000E94AD202B013C010E948B216B017C016F
:103250000E94391F9B01AC01C301B2010E94AC2046
:103260002B013C014AE0C701B6010E9459187C01BC
:10327000E80CF91CBB2069F0E0911507F0911607E6
:103280000190F081E02D6EE285E197E00995E80E6E
:10329000F91EDB2CDD2021F120E030E040E251E49A
:1032A000C301B2010E949A1F2B013C010E948B2195
:1032B0004B01A12CB12C4AE0C501B4010E94591860
:1032C000E80EF91EC501B4010E94391F9B01AC0133
:1032D000C301B2010E94AC202B013C01DA94DACF89
:1032E000C701FF90EF90DF90CF90BF90AF909F907D
:1032F0008F907F906F905F904F900895FC01809128
:103300001407811103C08FEF9FEF08959FB7F894C2
:1033100082E08093E9002091F20030E0121613065B
:1033200014F421E030E02115310551F084E680935A
:1033300013078091F10080838091F200882319F0B7
:103340009FBFC90108958BE68093E800F9CF2FB79E
:10335000F89483E08093E9009091E800892F8072CF
:1033600095FF04C09091F20080E4891B2FBF08955F
:103370008091C40781110DC082E08093C00784E072
:103380008093C1071092C3071092C20781E0809317
:10339000C40780EC97E00895CF92DF92EF92FF92FE
:1033A0000F931F93CF93DF931F92CDB7DEB7182FE4
:1033B000062FE42E862F880F8E5F99830E947C1142
:1033C00083E00E947C11F12EC12E9981D92E8C2D83
:1033D0008F19801798F4F601E7FE02C0849101C0AE
:1033E00080810E947C11182F80E00E947C11812333
:1033F000FFEFCF1ADF0A8111EACF01C081E00F9001
:10340000DF91CF911F910F91FF90EF90DF90CF90C0
:103410000895CF93DF93CDB7DEB7CD56D1090FB660
:10342000F894DEBF0FBECDBF789484B5826084BDB2
:1034300084B5816084BD85B5826085BD85B58160B8
:1034400085BD80916E00816080936E001092810036
:1034500080918100826080938100809181008160F1
:1034600080938100809180008160809380008091B2
:10347000910082608093910080919100816080939F
:103480009100809190008160809390008091C100B4
:1034900084608093C1008091C10082608093C100EC
:1034A0008091C10081608093C1008091C3008160E0
:1034B0008093C3008091C00082608093C00080919F
:1034C000C20081608093C20080917A008460809302
:1034D0007A0080917A00826080937A0080917A00ED
:1034E0008E7F80937A0080917A00806880937A0042
:1034F0001092140710923E06109239068091D70060
:1035000081608093D70080EA8093D80089B58F7E50
:1035100089BD89B5826089BD09B400FEFDCF61E037
:1035200070E080E090E00E9470128091D8008F7C63
:1035300080618093D8008091E000807F8093E000DC
:103540008091E1008E7E8093E1008DE08093E20027
:10355000EEEFFFE7859194918B3F9C4D19F481E04C
:1035600080933D068FEF9FEF909322078093210772
:1035700061E08DE00E9434120E94DC0A8093A40670
:10358000CE0101967C0183E8582E92E0492E2FE36C
:10359000222E26E0322E30E0C32E30E0D32E809152
:1035A000A40681110BC083E791E00E94FB1768EE2F
:1035B00073E080E090E00E94701223C200916707E0
:1035C00010916807D8018D919C91DC01ED91FC91DF
:1035D0000084F185E02D0995181619060CF06EC0CF
:1035E000F80180819181DC01ED91FC910284F385E9
:1035F000E02D099590919F06903610F5E92FF0E0A7
:10360000E15CF94F80838D3011F4108257C08A300D
:1036100099F4108210929F068CE6F70111928A9518
:10362000E9F7F10101900020E9F73197EF53F640F7
:103630006E2FE111EDC142C09F5F90939F063EC087
:1036400010929F063BC0803648F42DE030E02C0FEE
:103650003D1F280F311DF90140838F5F2A2F22194A
:10366000261748F44D915111EECF4A3309F4E3C1C6
:103670004D3009F0D3C19C3008F0DFC1F701E90FEC
:10368000F11D1082803608F0DAC1EDE0F0E0EC0FB9
:10369000FD1FE80FF11D10828981882379F00CE06D
:1036A00011E0D8016D917C916115710509F0CBC1D4
:1036B0000C5F1F4FB1E008331B0799F7E0916707D4
:1036C000F0916807DF01AB5ABF4F8C91882331F02E
:1036D0001C920E94DC0A8093A40693C1EA5AFF4F11
:1036E0008081882309F49EC010820E947C098C018D
:1036F00084E4F8017196D70101900D928A95E1F763
:1037000079808091690790916A070E940D0FF801F6
:1037100042855385648575858091690790916A0714
:103720000E94DA0ED8011E962C9100916907109123
:103730006A072E3F1CF02E3034F401C02EEF42E118
:10374000420F406409C0223124F04BE0420F4F7118
:1037500002C04EE0420F406661E1C801AE962FAF55
:10376000AE970E945015F801E25BFF4FAE962FAD69
:10377000AE9720830091690710916A07F801848150
:1037800095818C309105E9F3C8010E949E0E272D8A
:10379000213408F020E4AE014E5F5F4F60E0C801C5
:1037A0000E9407153801FFE46F0E711C81E0D30100
:1037B0008C93F801848195810C97A1F0E25BFF4F17
:1037C0008081823154F04DE56AE5C8010E945015B0
:1037D0004CE76CE5C8010E9450156CE070E0C80130
:1037E0000E941A160E942D134B015C01F8EE8F0EF9
:1037F000F3E09F1EA11CB11CD3018C91882339F0EA
:103800000E942D1386169706A806B906A8F74FE959
:1038100061E18091690790916A070E9450150E94AA
:103820003A16CFC00E947C09FC01EE5AFF4F20815E
:1038300031968081813049F4EEE3F1E0F0933C066B
:10384000E0933B0640923A0609C088E391E09093EA
:103850003C0680933B0693E090933A0600916907FB
:1038600010916A07F801222309F44FC0E05BFF4F73
:10387000808191818130910561F082309105F9F06C
:10388000892BB9F5D80116965C92C8010E94AD0E3D
:1038900098C067E2C8010E94871587FF92C064E262
:1038A000C8010E94871586958195823F0CF089C0DA
:1038B000F801968198170CF084C0868382C0F801C5
:1038C000E35BFF4F6081662351F0D80116964C915F
:1038D0001082C80107960E94B30A182F01C010E099
:1038E0008091690790916A07FC0156820E94AD0E93
:1038F00001C010E08091690790916A07DC0116967B
:103900005C920E94AD0E812F47C05682C8010E9472
:10391000AD0E0E942D133B014C01F8EB6F0EFBE046
:103920007F1E811C911C0E942D1366167706880647
:103930009906D8F0D80114968D919C91159704970B
:10394000A1F067E2C8010E94871587FFECCF64E20F
:10395000C8010E94871586958195882321F3F80177
:103960009681981704F78683DECFC8010E949E0EC9
:10397000F801E35BFF4F6081662319F180916907CD
:1039800090916A07DC0116964C91FC01E35BFF4FB6
:10399000108207960E94B30A882399F061E08DE0B7
:1039A0000E94D1110E942D13DC01CB010596A11DAF
:1039B000B11D8093A0069093A106A093A206B09398
:1039C000A3066090A0067090A1068090A206909039
:1039D000A306611471048104910499F00E942D13CF
:1039E000661677068806990660F460E08DE00E940E
:1039F000D1111092A0061092A1061092A206109268
:103A0000A306C114D10409F4CACD0E940000BBCDA5
:103A1000AFE3B6E090E080E050E024CE4A3009F415
:103A20002ACE9C3008F01ACE9701290F311DF901DA
:103A300040839F5F13CE51E011CE1C8623CEAD96FE
:103A40001FAEAD9729CEC7010E942922892B09F00C
:103A50002FCED8011296ED91FC911397309709F46F
:103A600027CECE010D96099523CE109218071092FD
:103A7000170788EE93E0A0E0B0E0809319079093D9
:103A80001A07A0931B07B0931C0782E891E090935C
:103A90001607809315078FEF9FEF9093220780936F
:103AA00021078093BD078093BE078093BF0780E501
:103AB00080936B0781E080936C078DEB97E0909388
:103AC0006E0780936D071092700710926F0783E85E
:103AD00080937107E2E7F7E0119287E0E83BF8078F
:103AE000D9F78BE697E01092B8071092B9071092B9
:103AF000BA071092BC071092BB0790936607809399
:103B0000650790936A07809369070E947C099093E8
:103B10006807809367070895662777270C94B61D7A
:103B2000FC0188279927E89421912032E9F3293074
:103B300010F02E30C8F32B3241F02D3239F4689456
:103B400004C00E94AE1D820F911D219120532A3086
:103B5000C0F31EF4909581959F4F08957AE0979F4A
:103B6000902D879F802D910D11240895A0E0B0E045
:103B7000ECEBFDE10C946A20EC017B016115710511
:103B800019F0DB018D939C938E010F5F1F4F78809E
:103B9000872D90E00E94131F892B11F0E801F4CFCC
:103BA000BDE27B1205C00F5F1F4F7980C1E008C0E6
:103BB000EBE27E1204C08E010E5F1F4F7980C0E0E1
:103BC0006801F1E0CF1AD10843E050E062ED70E007
:103BD000C6010E941C1F892BF1F4680122E0C20E6D
:103BE000D11C45E050E06DEC70E0C6010E941C1F46
:103BF000892B21F4680187E0C80ED11CE114F1047F
:103C000019F0D701CD92DC92C111FFC060E070E0E5
:103C100080E89FE703C143E050E06AEC70E0C60132
:103C20000E941C1F892B51F4E114F10409F4F2C025
:103C30000E5F1F4FF70111830083ECC0680160E045
:103C400070E0CB0100E010E0F601D0EDD70DDA30E6
:103C500058F52C2F2260622E2C2F2870C2FF05C031
:103C6000211128C00F5F1F4F25C0222311F00150E2
:103C70001109A5E0B0E09B01AC010E945B204B0163
:103C80005C01880C991CAA1CBB1CC501B4016D0FFA
:103C9000711D811D911D6839A9E97A078A07A9E17B
:103CA0009A0740F0C66005C0DE3F51F4C3FD44C032
:103CB000C8606C2EBFEFCB1ADB0A7080C62DC4CF54
:103CC0002D2F2F7D2531C1F540814D3211F4C0617A
:103CD00006C04B3221F0319621E030E006C032962A
:103CE000D60111964C9122E030E0A0EDA40FAA304D
:103CF00018F0E21BF30B20C040E050E04038BCE07D
:103D00005B075CF49A01220F331F220F331F420F0F
:103D1000531F440F551F4A0F511D3196DF01119754
:103D20002C91A0EDA20FAA3048F3C4FF03C0519517
:103D300041955109040F151FC1FF07C0E114F1049B
:103D400021F03197D701ED93FC930E94391FC37086
:103D5000C33019F06B017C0106C06B017C01F7FADE
:103D6000F094F7F8F09420E030E0A901C701B60123
:103D70000E94341F882309F445C017FF06C011951F
:103D800001951109C9EED0E002C0C1E0D1E05E01A9
:103D9000B8E1AB1AB1084601BE2DAF2D90E2E92E75
:103DA000F12C0E151F0584F0FE01259135914591EA
:103DB0005491B4018B2F9A2F0E949A1F4B01B82F58
:103DC000A92F0E191F09EDCF2497F594E794CA1572
:103DD000DB0539F76401EB2EFA2E8E2D880F8F2D1F
:103DE000881F8F3F49F020E030E0A901C701B601EC
:103DF0000E94341F811106C082E290E09093CD07AB
:103E00008093CC07C701B60109C060E070E080E88C
:103E10009FEF04C060E070E080EC9FE7CDB7DEB7B5
:103E2000EEE00C94862091110C940720803219F05A
:103E300089508550C8F70895FB01DC01415050407E
:103E400088F08D9181341CF08B350CF4805E659187
:103E500061341CF06B350CF4605E861B611171F3EC
:103E6000990B0895881BFCCF0E94761F08F481E00F
:103E70000895E89409C097FB3EF49095809570955D
:103E800061957F4F8F4F9F4F9923A9F0F92F96E9A6
:103E9000BB279395F695879577956795B795F1111B
:103EA000F8CFFAF4BB0F11F460FF1BC06F5F7F4FB8
:103EB0008F4F9F4F16C0882311F096E911C07723CA
:103EC00021F09EE8872F762F05C0662371F096E8D3
:103ED000862F70E060E02AF09A95660F771F881FA2
:103EE000DAF7880F9695879597F90895990F000846
:103EF000550FAA0BE0E8FEEF16161706E807F907BC
:103F0000C0F012161306E407F50798F0621B730B56
:103F1000840B950B39F40A2661F0232B242B252BD7
:103F200021F408950A2609F4A140A6958FEF811D7A
:103F3000811D08950E94AD1F0C9421200E94132022
:103F400038F00E941A2020F0952311F00C940A20DA
:103F50000C94102011240C9455200E94322070F3F0
:103F6000959FC1F3950F50E0551F629FF001729F1E
:103F7000BB27F00DB11D639FAA27F00DB11DAA1F2D
:103F8000649F6627B00DA11D661F829F2227B00D7A
:103F9000A11D621F739FB00DA11D621F839FA00D05
:103FA000611D221F749F3327A00D611D231F849F55
:103FB000600D211D822F762F6A2F11249F575040AC
:103FC0009AF0F1F088234AF0EE0FFF1FBB1F661F27
:103FD000771F881F91505040A9F79E3F510580F0F0
:103FE0000C940A200C9455205F3FE4F3983ED4F3E0
:103FF000869577956795B795F795E7959F5FC1F794
:10400000FE2B880F911D9695879597F9089599270E
:104010008827089597F99F6780E870E060E0089529
:104020009FEF80EC089500240A94161617061806D0
:104030000906089500240A941216130614060506AC
:104040000895092E0394000C11F4882352F0BB0F3D
:1040500040F4BF2B11F460FF04C06F5F7F4F8F4FA0
:104060009F4F089557FD9058440F551F59F05F3FDB
:1040700071F04795880F97FB991F61F09F3F79F08A
:1040800087950895121613061406551FF2CF46950C
:10409000F1DF08C0161617061806991FF1CF86958E
:1040A0007105610508940895E894BB276627772772
:1040B000CB0197F908950E949D20A59F900DB49F74
:1040C000900DA49F800D911D112408952F923F9271
:1040D0004F925F926F927F928F929F92AF92BF9218
:1040E000CF92DF92EF92FF920F931F93CF93DF93C4
:1040F000CDB7DEB7CA1BDB0B0FB6F894DEBF0FBE21
:10410000CDBF09942A88398848885F846E847D846D
:104110008C849B84AA84B984C884DF80EE80FD806F
:104120000C811B81AA81B981CE0FD11D0FB6F894E5
:10413000DEBF0FBECDBFED010895A29FB001B39FBA
:10414000C001A39F700D811D1124911DB29F700DA0
:10415000811D1124911D08955058BB27AA270E9444
:10416000C4200C9421200E94132038F00E941A20B1
:1041700020F039F49F3F19F426F40C9410200EF42B
:10418000E095E7FB0C940A20E92F0E94322058F3B7
:10419000BA17620773078407950720F079F4A6F52C
:1041A0000C9454200EF4E0950B2EBA2FA02D0B0189
:1041B000B90190010C01CA01A0011124FF27591B6C
:1041C00099F0593F50F4503E68F11A16F040A22F72
:1041D000232F342F4427585FF3CF469537952795E3
:1041E000A795F0405395C9F77EF41F16BA0B620BE2
:1041F000730B840BBAF09150A1F0FF0FBB1F661F29
:10420000771F881FC2F70EC0BA0F621F731F841F6B
:1042100048F4879577956795B795F7959E3F08F091
:10422000B0CF9395880F08F09927EE0F9795879553
:1042300008950E942D210C9421200E941A2058F0EC
:104240000E94132040F029F45F3F29F00C940A20CB
:1042500051110C9455200C9410200E94322068F3C8
:104260009923B1F3552391F3951B550BBB27AA272F
:1042700062177307840738F09F5F5F4F220F331F69
:10428000441FAA1FA9F335D00E2E3AF0E0E832D031
:1042900091505040E695001CCAF72BD0FE2F29D034
:1042A000660F771F881FBB1F261737074807AB0706
:1042B000B0E809F0BB0B802DBF01FF2793585F4F7B
:1042C0003AF09E3F510578F00C940A200C9455204A
:1042D0005F3FE4F3983ED4F3869577956795B7955D
:1042E000F7959F5FC9F7880F911D9695879597F968
:1042F0000895E1E0660F771F881FBB1F62177307E1
:104300008407BA0720F0621B730B840BBA0BEE1FF5
:1043100088F7E09508950E943A2088F09F5798F01A
:10432000B92F9927B751B0F0E1F0660F771F881FBA
:10433000991F1AF0BA95C9F714C0B13091F00E94D4
:104340005420B1E008950C945420672F782F8827CB
:10435000B85F39F0B93FCCF3869577956795B395FB
:10436000D9F73EF490958095709561957F4F8F4F6A
:104370009F4F08950E94761F08F48FEF08950E94C2
:10438000761F880B990B089597FB072E16F400945F
:1043900007D077FD09D00E94072207FC05D03EF424
:1043A000909581959F4F0895709561957F4F0895E1
:1043B000A1E21A2EAA1BBB1BFD010DC0AA1FBB1F29
:1043C000EE1FFF1FA217B307E407F50720F0A21B9B
:1043D000B30BE40BF50B661F771F881F991F1A9408
:1043E00069F760957095809590959B01AC01BD0132
:1043F000CF010895EE0FFF1F0590F491E02D099471
:104400006927962769277827872778270895AA1B81
:10441000BB1B51E107C0AA1FBB1FA617B70710F0AF
:10442000A61BB70B881F991F5A95A9F780959095E1
:10443000BC01CD01089581E090E0F8940C940C2526
:10444000FB01DC0102C001900D9241505040D8F7B1
:104450000895FB01DC018D91019080190110D9F3C1
:10446000990B0895AEE0B0E0E8E3F2E20C9474201A
:104470000D891E898F89988D26E02C831A830983E4
:1044800097FF02C080E090E801979E838D83AE0184
:10449000455E5F4F698D7A8DCE0101960E948E2216
:1044A0004D815E8157FD0AC02F8138854217530721
:1044B0000CF49A01F801E20FF31F10822E96E4E04B
:1044C0000C949020AEE0B0E0E8E6F2E20C947420A8
:1044D0008C01CA0146E04C831A83098377FF02C02E
:1044E00060E070E8FB013197FE83ED83A901BC0118
:1044F000CE0101960E948E224D815E8157FD0AC039
:104500002F813885421753070CF49A01F801E20F06
:10451000F31F10822E96E4E00C949020ACE0B0E003
:10452000E4E9F2E20C9466207C016B018A01FC0153
:1045300017821682838181FFBDC1CE0101964C0195
:10454000F7019381F60193FD859193FF81916F01AE
:10455000882309F4ABC1853239F493FD859193FF2B
:1045600081916F01853229F4B70190E00E94762491
:10457000E7CF512C312C20E02032A0F48B3269F0AF
:1045800030F4803259F0833269F420612CC08D32CE
:1045900039F0803339F4216026C02260246023C0C2
:1045A000286021C027FD27C030ED380F3A3078F45D
:1045B00026FF06C0FAE05F9E300D1124532E13C073
:1045C0008AE0389E300D1124332E20620CC08E32CA
:1045D00021F426FD6BC1206406C08C3611F42068DE
:1045E00002C0883641F4F60193FD859193FF8191D5
:1045F0006F018111C1CF982F9F7D9554933028F47E
:104600000C5F1F4FFFE3F9830DC0833631F0833712
:1046100071F0833509F05BC022C0F8018081898385
:104620000E5F1F4F44244394512C540115C0380190
:10463000F2E06F0E711CF801A080B18026FF03C06C
:10464000652D70E002C06FEF7FEFC5012C870E94DF
:104650006B242C0183012C852F77222E17C0380163
:10466000F2E06F0E711CF801A080B18026FF03C03C
:10467000652D70E002C06FEF7FEFC5012C870E94AF
:1046800060242C012C852068222E830123FC1BC072
:10469000832D90E048165906B0F4B70180E290E00F
:1046A0000E9476243A94F4CFF50127FC859127FEE9
:1046B00081915F01B70190E00E94762431103A9415
:1046C000F1E04F1A51084114510471F7E5C08436E6
:1046D00011F0893639F5F80127FF07C06081718133
:1046E000828193810C5F1F4F08C060817181072E0A
:1046F000000C880B990B0E5F1F4F2F76722E97FFC1
:1047000009C090958095709561957F4F8F4F9F4F11
:104710002068722E2AE030E0A4010E94AE24A82E68
:10472000A81844C0853729F42F7EB22E2AE030E045
:1047300025C0F22FF97FBF2E8F36C1F018F48835CF
:1047400079F0B4C0803719F0883721F0AFC02F2F2F
:104750002061B22EB4FE0DC08B2D8460B82E09C02E
:1047600024FF0AC09F2F9660B92E06C028E030E0D3
:1047700005C020E130E002C020E132E0F801B7FEE0
:1047800007C060817181828193810C5F1F4F06C0D9
:104790006081718180E090E00E5F1F4FA4010E9454
:1047A000AE24A82EA818FB2DFF777F2E76FE0BC017
:1047B000372D3E7FA51450F474FE0AC072FC08C069
:1047C000372D3E7E05C0BA2C372D03C0BA2C01C050
:1047D000B52C34FF0DC0FE01EA0DF11D8081803340
:1047E00011F4397E09C032FF06C0B394B39404C0FB
:1047F000832F867809F0B39433FD13C030FF06C0D1
:104800005A2CB31418F4530C5B18B32CB31468F47B
:10481000B70180E290E03C870E947624B3943C8507
:10482000F5CFB31410F43B1801C0312C34FF12C083
:10483000B70180E390E03C870E9476243C8532FFFC
:1048400017C031FD03C088E790E002C088E590E022
:10485000B7010CC0832F867859F031FF02C08BE27C
:1048600001C080E237FD8DE2B70190E00E9476241E
:10487000A51438F4B70180E390E00E9476245A949E
:10488000F7CFAA94F401EA0DF11D8081B70190E001
:104890000E947624A110F5CF332009F451CEB70140
:1048A00080E290E00E9476243A94F6CFF701868168
:1048B000978102C08FEF9FEF2C96E2E10C9482204B
:1048C000FC010590615070400110D8F780959095DB
:1048D0008E0F9F1F0895FC016150704001900110E0
:1048E000D8F7809590958E0F9F1F08950F931F9373
:1048F000CF93DF93FB01238121FD03C08FEF9FEF57
:1049000028C022FF16C04681578124813581421775
:10491000530744F4A081B1819D012F5F3F4F318344
:1049200020838C93268137812F5F3F4F37832683E7
:1049300010C0EB01092F182F0084F185E02D099597
:10494000892BE1F68E819F8101969F838E83812F33
:10495000902FDF91CF911F910F910895FA01AA270F
:10496000283051F1203181F1E8946F936E7F6E5FB2
:104970007F4F8F4F9F4FAF4FB1E03ED0B4E03CD060
:10498000670F781F891F9A1FA11D680F791F8A1F43
:10499000911DA11D6A0F711D811D911DA11D20D0AA
:1049A00009F468943F912AE0269F11243019305D64
:1049B0003193DEF6CF010895462F4770405D419355
:1049C000B3E00FD0C9F7F6CF462F4F70405D4A33A2
:1049D00018F0495D31FD4052419302D0A9F7EACF6A
:1049E000B4E0A6959795879577956795BA95C9F799
:1049F00000976105710508959B01AC010A2E06948C
:104A00005795479537952795BA95C9F7620F731F44
:0C4A1000841F951FA01D0895F894FFCF8F
:104A1C00FFFFFFFF00E10000000000009001790A99
:104A2C009501200A9F015C0E9C011A0EA901D80D5C
:104A3C00AE018F0DEB05A80BB9017F0BC201560B14
:104A4C00CA01310BD1016A0DF1044809B1086D0797
:104A5C00DF053511351135113511351100C1808146
:104A6C00000000006050303050600070102040405A
:104A7C002010700000C8410000D9430080D94300C9
:104A8C0000000000FF050100070602001F060000E1
:104A9C000000D110AA123611E710F2103A11581179
:104AAC006D6F6465007072657365740074785F6611
:104ABC0072657175656E63790072786277006D6FDF
:104ACC0064756C6174696F6E0072785F6173796E76
:104ADC00630072785F747970650074785F64626DDE
:104AEC000076657273696F6E003433332E32350085
:104AFC0035302E300031003433342E300034333521
:104B0C002E30003137007B2270726F746F636F6CC4
:104B1C00223A2225752E25752E2575222C226D659F
:104B2C007461223A7B22646174615F7479706522CE
:104B3C003A222573222C2272737369223A25647DE2
:104B4C002C2264617461223A7B226964223A222508
:104B5C0073227D7D00747261636B65720074656C89
:104B6C00656D65747279007B2270726F746F636F00
:104B7C006C223A2225752E25752E2575222C226D38
:104B8C00657461223A7B22646174615F747970652B
:104B9C00223A222573222C22736F75726365223A96
:104BAC007B2274797065223A222573222C22696447
:104BBC00223A222573227D2C2272737369223A25A4
:104BCC00647D2C2264617461223A7B002C2274690E
:104BDC006D65223A256C752C22616374223A256C22
:104BEC00752C227370656564223A25752C22616CD4
:104BFC00746974756465223A25642C22736F6C6138
:104C0C00725F6D61223A25752C2274656D705F633D
:104C1C00223A25642C2274746666223A25757D7DB1
:104C2C00006E6F6465006E6F64655F636F646564CE
:104C3C005F6964007B2270726F746F636F6C223AD1
:104C4C002225752E25752E2575222C226D657461F5
:104C5C00223A7B22646174615F74797065223A2216
:104C6C002573222C22736F75726365223A7B227432
:104C7C00797065223A222573222C226964223A2209
:104C8C00256C78227D2C0022636F6C6C65637469D3
:104C9C006F6E223A7B226964223A256C752C226352
:104CAC006F756E74223A25752C22696478223A2528
:104CBC00757D2C2272737369223A25647D2C002237
:104CCC0064617461223A7B227265635F6174223A7B
:104CDC00256C752C226964223A222573222C2272AF
:104CEC00737369223A25647D7D006E6F64655F681D
:104CFC0065616C7468007B2270726F746F636F6C8B
:104D0C00223A2225752E25752E2575222C226D65AD
:104D1C007461223A7B22646174615F7479706522DC
:104D2C003A222573222C22736F75726365223A7BAB
:104D3C002274797065223A222573222C226964220E
:104D4C003A22256C78227D2C2272737369223A25C3
:104D5C00647D2C002264617461223A7B2273656E3F
:104D6C00745F6174223A256C752C226677223A2284
:104D7C0025752E25752E2575222C2274656D705F78
:104D8C0063223A25642C226261745F76223A25757F
:104D9C002C22736F6C5F76223A25752C22736F6C04
:104DAC005F6D61223A25752C2273756D5F736F6C84
:104DBC005F6D61223A256C752C00226669785F6103
:104DCC0074223A256C752C226C6174223A256C6421
:104DDC002C226C6F6E223A256C647D7D007B2272D6
:104DEC00737369223A25642C2264617461223A7BC4
:104DFC00226E6F64655F62656570223A7B2269641E
:104E0C00223A22256C78222C227461675F727373AC
:104E1C0069223A25642C20226F66667365745F6D77
:104E2C0073223A256C647D2C226E6F64655F74610D
:104E3C0067223A7B2276657273696F6E223A312C47
:104E4C00227461675F6964223A222573222C2265E1
:104E5C0072726F725F62697473223A25647D7D7D14
:104E6C00007B2272737369223A25642C226461746C
:104E7C0061223A7B226E6F64655F616C6976652294
:104E8C003A7B226964223A22256C78222C226669AC
:104E9C00726D77617265223A2225752E25752E2545
:104EAC0075222C22626174746572795F6D76223A78
:104EBC0025752C2263656C73697573223A25752CE4
:104ECC00226176675F636361223A25647D7D7D0094
:104EDC00227D0062616420617267006E6F646532CE
:104EEC00006E6F6465330066736B746167006F6F7F
:104EFC006B746167006E6F6465335F747800716109
:104F0C007163006E6F64655F7632007461675F6613
:104F1C00736B007461675F6F6F6B0076616C203C24
:104F2C00206C696D0076616C203E206C696D0067A9
:104F3C006D736B000D0A006E616E00696E66006F1A
:044F4C007666000085
:00000001FF
